:02000004080AE8
:1000000000000A083C410A0800000600060005013D
:080010000402290500000000B4
:0400180038390A0861
:1000200009480A4908B5884205D0094A824202D0E7
:10003000121A02F0BFFF0748074A0021121A02F005
:10004000C4FF064808BD00BF00000020843F0A0826
:10005000900100209001002050080020500800204E
:1000600070B501F0FFFE074B074C1E46E41AA408CA
:100070000025A54204D056F8253098470135F8E709
:1000800070BD00BF403F0A08783F0A0800F01CBB63
:1000900008B500F09DF9BDE8084001F0A5BE00F0EC
:1000A00045BE00F04BBE0078B0FA80F040097047C2
:1000B000012303707047012A02D0022A02D004E013
:1000C000016002E00B6800B10360002070471FB5BB
:1000D0000468684601F059FB6846A0470446684634
:1000E00001F063FB204604B010BD37B505469DF80E
:1000F000184023438DF800303C2301F011F82846C6
:1001000003B030BD08B54FF4B961024800F09CFB64
:10011000012008BDB80100202DE9D04300F076FD94
:1001200040F2E7364FF496740027002000F028FCD8
:1001300080464FF00009002000F022FCB0EB0800E0
:1001400061EB09018F4208BF864205D300F066FDCE
:1001500010B900F053FDEEE700F060FD18B1BDE806
:10016000D04300F05BBD00F0F3FB034B186000F0E0
:1001700045FD013CF3D0D8E73407002008B500F076
:10018000E7FB044B1B68C01AB0F57A7F34BF002030
:10019000012008BDAC01002008B5FFF7EFFF18B142
:1001A000BDE80840FFF7EABF00F028FDF5E738B5E5
:1001B000046805467CB16368013B63605BB92368F2
:1001C00020469B689847A368013BA3601BB923683E
:1001D0002046DB689847284638BD000000B54FF43C
:1001E000B9618DB0124800F02FFB124ACDE9000131
:1001F000202104A800F0BAFD0F4B00221B780F4904
:100200008DF8002002A804AAFFF76FFF03A8FFF7EC
:10021000CEFF01F0E5FB0A4B01221870094B1A7062
:1002200000F096FB084B18600DB05DF804FB00BFB2
:10023000B80100208C390A08A80100209E390A085C
:1002400094010020D1000020B001002030B50C4600
:1002500085B01D4D51B92B78002B32D0FFF79CFF94
:100260001A4B1B4A1B788DF8004023E0084602F029
:1002700097FDC83801282B7813D873B1FFF78CFF8E
:10028000124B00221B7802A88DF800201149124A57
:10029000FFF72BFF03A8FFF78AFF104B00221A700D
:1002A0000FE073B1FFF778FF084B00221B788DF841
:1002B0000020224602A80A49FFF717FF03A8FFF70C
:1002C00076FF05B030BD00BFD0000020A80100209F
:1002D000AE390A08D5390A08C3390A08D100002006
:1002E000B6390A0830B5134985B0054601F0D1FA90
:1002F000044648B1104B01241C70104B00221B789F
:100300008DF800200E4A0BE00E49284601F0C1FA94
:1003100070B1094B0C4A1C70084B1B788DF80040DB
:100320000A4902A8FFF7E1FE03A8FFF740FF0120FA
:1003300005B030BDF33A0A08D0000020A801002023
:10034000DB390A08EC390A08EE390A08FE390A08CE
:1003500030B5184D18492A781A2303FB0212174C9E
:100360008FB02078009203FB0013154A282104A8BF
:1003700000F0FCFC2B78237000F050FC90B1FFF7EC
:100380000BFF104B00221B780F498DF8002002A8AC
:1003900004AAFFF7AAFE03A8FFF709FF00F0D8FAA6
:1003A0000A4B186001F02CFC04A901F084F90FB08D
:1003B00030BD00BFA001002000000020A9010020E6
:1003C000033A0A08A8010020113A0A08AC010020EB
:1003D0007FB5644C2378013B042B00F2C080DFE83A
:1003E00003F09503194566005F4B1B782BB15F4BFB
:1003F0001B78022B01D0FFF7ABFF01F0FBFA5C4D3D
:100400002B68C01A1D2840F3AA800323237001F033
:10041000F1FA79E0544B1A781D462AB1534B1B78F8
:10042000032B01D0FFF794FFFFF76CFE0646D8B907
:100430000123237000F08CFA4E4B18602B78002BB0
:1004400000F08D80FFF7A8FE4B4B4C4A1B784C49BF
:1004500002A88DF80060FFF748FE03A8FFF7A7FE8B
:1004600000F076FA474B20E004232DE03E4B1B784A
:100470002BB13E4B1B78042B01D0FFF769FF00F036
:10048000CDFB68B101F0ACFA0C2805D100F0C6FB39
:1004900010B1002000F0E2FBFFF7A0FE052313E0FF
:1004A0000123237000F054FA324B186057E02E4BB2
:1004B0001B782BB12D4B1B78052B01D0FFF748FF84
:1004C000314B1B7813B90223237048E000F040FA47
:1004D0002E4B1B68C01A4AF6C87398423FD900F0E9
:1004E00037FA244D244B00221B78286028498DF8C8
:1004F000002002A8274AFFF7F8FD03A8FFF757FEE0
:100500000123237000F024FA286028E0164B1B78A2
:100510002BB1164B1B78012B01D0FFF719FF00F010
:1005200017FA144B1B6803F5922303F5787398426E
:1005300015D900F073FB60B10F4B00221B7802A8A5
:100540008DF800200E49144AFFF7CFFD03A8FFF7EE
:100550002EFE4FF4FA6000F029FC01F0C9F904B056
:1005600070BD00BFA0010020D0000020A901002024
:10057000A40100209C010020A8010020223A0A08C2
:10058000D5390A08AC010020D1000020B0010020BC
:100590003C3A0A08663B0A08553A0A081FB5114951
:1005A000044601F076F998B10F4B03221A70FFF759
:1005B000F3FD0E4B00221B780D498DF8002002A898
:1005C0000C4AFFF792FD03A8FFF7F1FD012006E0BA
:1005D0000949204601F05DF9003018BF012004B040
:1005E00010BD00BFF33A0A08A0010020A8010020B6
:1005F000883A0A08693A0A08EC390A081FB511490D
:10060000044601F046F998B10F4B04221A70FFF727
:10061000C3FD0E4B00221B780D498DF8002002A867
:100620000C4AFFF762FD03A8FFF7C1FD012006E0B9
:100630000949204601F02DF9003018BF012004B00F
:1006400010BD00BFF33A0A08A0010020A801002055
:10065000883A0A08913A0A08EC390A0830B50023AA
:1006600085B00546029321B1144B00910393144BBE
:100670000293029B83B11020FFF711FD044658B18D
:1006800000238360029B7BB1022269469847039B4B
:10069000E360029BA36007E00024029B5BB103229E
:1006A00069466846984706E021462A46054800F014
:1006B0000FFC0446F1E7204605B030BDCF000A0824
:1006C000B7000A08A90E0A0870B5B8B001F098FA88
:1006D0004FF4165101F07AFA354A3649364800F09F
:1006E000F7FB36493648FFF7B9FF36493648FFF77A
:1006F000B5FF08AA1546354B03F1100614461868D5
:100700005968083303C4B3422246F7D119889B784D
:100710002180A3702D2200210DF133002C4C02F01A
:1007200054FC022304A8237000F080FA00237D22E9
:1007300018A904A801F0BFF80023019300931A46FA
:10074000244918A800F082FAFFF7E6FC48B9012313
:10075000237000F0FDF8204B20491860284602F075
:100760006FFC11A3D3E900230C211D4800F060F8B1
:100770001C4B1B7863B11C4B00221B7802A88DF820
:1007800000201A492A46FFF7B0FC03A8FFF70FFD27
:1007900000F0DEF8164B186004A801F006F838B037
:1007A00070BD00BFAFF3008091ED7C3F358E4240BD
:1007B000B23A0A08E5020A087D0E0A089D050A08F1
:1007C000BE3A0A08FD050A08CA3A0A084C390A085E
:1007D000A00100204D020A089C010020D63A0A0818
:1007E000B8010020D0000020A8010020E83A0A0843
:1007F000AC01002038B50C4B01241C7000F0C8F887
:100800004FF6FF72094B00251D705D809A80022013
:1008100000F0A8F92946204600F0B4F92146BDE8C9
:100820003840042000F07CB8A80100209601002088
:10083000C0E90E23024B0022C162C0E91C237047AD
:100840000000A040000000002DE9F04704468A4661
:10085000002555452FD0A08D01F054FBE06401F038
:1008600089FFD4E91C6732463B468046894601F041
:1008700033FE0022244B01F0E3FF32463B4601F0F9
:100880002DFE02460B464046C4E91C23494601F0B2
:1008900023FE02460B46C4E9182301F0D1FF0246AD
:1008A0000B46D4E92601C4E9242301F017FE0135E3
:1008B000C4E92601CDE712A3D3E90023D4E90E0150
:1008C00001F0BEFF064628460F4601F043FF0246F0
:1008D0000B46D4E9260102F0DDF801F0D7FC024610
:1008E0000B463046394601F0ABFF00220023C4E935
:1008F0000801C4E92623BDE8F08700BFAFF30080FC
:100900006666666666664A3F0000503F00F040B883
:1009100008B5024B1B681B6B019308BDD00106088C
:1009200008B5024B1B685B6E019308BDB801060851
:1009300008B5024B1B689B6E019308BDB801060801
:1009400008B5024B1B685B68019308BD9C01060853
:1009500008B5024B1B685B69019308BD9C01060842
:1009600008B5024B1B68DB69019308BD9C010608B2
:1009700008B5024B1B689B6D019308BD9C010608DE
:1009800008B5024B1B68DB6D019308BD9C0106088E
:1009900008B5024B1B681B68019308BDB00106082F
:1009A00008B5024B1B685B68019308BDB0010608DF
:1009B00008B5024B1B681B6B019308BDB00106080C
:1009C00008B5024B1B681B6E019308BDAC010608FD
:1009D00008B5024B1B685B6E019308BDAC010608AD
:1009E00008B5024B1B689B6E019308BDAC0106085D
:1009F00008B5024B1B68DB6E019308BDAC0106080D
:100A000008B5024B1B681B6F019308BDAC010608BB
:100A100008B5024B1B685B6F019308BDAC0106086B
:100A200008B5034B1B68D3F88030019308BD000064
:100A3000AC01060808B5024B1B68DB69019308BDD1
:100A4000B401060808B5024B1B681B6A019308BD78
:100A5000B401060808B5024B1B689B69019308BDE9
:100A6000C401060808B5024B1B685B6A019308BD08
:100A7000C401060808B5024B1B689B6A019308BDB8
:100A8000C401060808B5024B1B68DB6A019308BD68
:100A9000C401060808B5024B1B681B6B019308BD17
:100AA000C401060808B5024B1B685B6B019308BDC7
:100AB000C401060808B5024B1B689B6B019308BD77
:100AC000C401060808B5024B1B681B6C019308BDE6
:100AD000C401060808B5024B1B681B68019308BDDA
:100AE000D801060808B5024B1B685B68019308BD76
:100AF000D801060808B5024B1B681B69019308BDA5
:100B0000D801060808B5024B1B685B69019308BD54
:100B1000D801060808B5024B1B689B69019308BD04
:100B2000D801060808B5024B1B68DB69019308BDB4
:100B3000D801060808B5024B1B681B6A019308BD63
:100B4000D801060808B5024B1B689B6C019308BDD1
:100B5000C001060808B5024B1B681B68019308BD5D
:100B6000A401060808B5024B1B685B68019308BD29
:100B7000A401060808B5024B1B685B69019308BD18
:100B8000A401060808B5024B1B68DB6A019308BD87
:100B9000A401060808B5024B1B68DB6C019308BD75
:100BA000A401060808B5024B1B685B6D019308BDE4
:100BB000A401060808B5024B1B689B6D019308BD94
:100BC000A401060808B5034B1B68D3F890300193C5
:100BD00008BD0000A401060808B5034B1B68D3F844
:100BE0009C30019308BD0000A401060808B5024B23
:100BF0001B685B68019308BDCC01060808B5024B71
:100C00001B689B68019308BDCC01060808B5024B20
:100C10001B68DB68019308BDCC01060808B5024BD0
:100C20001B685B69019308BDCC01060808B5024B3F
:100C30001B68DB69019308BDCC01060808B5024BAF
:100C40001B681B6A019308BDCC01060808B5024B5E
:100C50001B685B6A019308BDCC01060808B5024B0E
:100C60001B68DB6A019308BDCC01060808B5024B7E
:100C70001B681B6B019308BDCC01060808B5024B2D
:100C80001B68DB6B019308BDCC01060808B5024B5D
:100C90001B685B68019308BDC801060808B5024BD4
:100CA0001B689B68019308BDC801060808B5024B84
:100CB0001B68DB68019308BDC801060808B5024B34
:100CC0001B681B69019308BDC801060808B5024BE3
:100CD0001B685B69019308BDC801060808B5024B93
:100CE0001B689B69019308BDC801060808B5024B43
:100CF0001B68DB69019308BDC801060808B5024BF3
:100D00001B681B6A019308BDC801060808B5024BA1
:100D10001B681B6B019308BDC801060808B5024B90
:100D20001B685B6B019308BDC801060808B5024B40
:100D30001B681B68019308BDA001060808B5024B9B
:100D40001B685B68019308BDA001060808B5024B4B
:100D50001B689B68019308BDA001060808B5024BFB
:100D60001B689B69019308BDA001060808B5024BEA
:100D70001B68DB69019308BDA001060808B5024B9A
:100D80001B68DB6A019308BDA001060808B5024B89
:100D90001B681B6B019308BDA001060808B5024B38
:100DA0001B68DB6B019308BDA00106080021FFF75B
:100DB000E1BE10B5836804460BB901F01CF9C368A5
:100DC0009847A3681BB10322214620469847204636
:100DD000BDE81040102101F00CB9704700207047A9
:100DE00010B50446102101F004F9204610BD08B5E5
:100DF00008B1FFF7F5FF08BD10B58368044613B1CD
:100E0000032201469847204610BD002202604FF69B
:100E10009C72828010B5B1F9044084808A80026897
:100E20000C6804600A6010BD10B504460068FFF746
:100E300085FF204610BD38B5C468F4B12378022B75
:100E400003D104F10C00FFF7EFFF656835B12846C8
:100E5000FFF7D2FF1021284601F0CBF8A56835B185
:100E60002846FFF7C9FF1021284601F0C2F82046A6
:100E7000BDE83840142101F0BCB838BD10B588B0C9
:100E80000446684600F0D8FC694604A800F0F6FC69
:100E900004A8A047044604A800F087FC684600F0B8
:100EA00084FC204608B010BD1FB50446684600F01B
:100EB000C3FCA3680BB901F09EF8E36869462046BD
:100EC00098470446684600F070FC204604B010BD08
:100ED000F0B507460E46154685B01024224600217F
:100EE000684602F072F8002269461046ADF80040EC
:100EF000029703960195FFF779FE05B0F0BD13B593
:100F0000044691E8050000234B600B60206062609E
:100F100001A801930093FFF74AF9204602B010BDE3
:100F20000B68036013B15A6801325A607047F7B515
:100F30000C4606460F4654F8043B02AD45F8083D02
:100F4000214601A8FFF7ECFF29463046FFF7D7FFFF
:100F500001A8FFF72CF92046FFF729F938460821A8
:100F600001F047F8304603B0F0BD13B50B46044618
:100F700003C88DE8030093E8030084E803009DE8BC
:100F8000030083E8030002B010BD000038B5002361
:100F90000446036010200D46FFF781F828B10123B5
:100FA00043608360024BC56003602060204638BD0B
:100FB000003B0A08826810B50AB901F01CF8C36842
:100FC000BDE81040184708B5006800F11001FFF7B0
:100FD000F1FF08BD826810B50AB901F00CF8C368CA
:100FE000BDE81040184708B5006800F11001FFF790
:100FF000F1FF08BD38B5002383608B6804460D46B9
:101000002BB102229847EB68E360AB68A3602046EF
:1010100038BD0000F0B589B004686846FFF7F5FEFA
:101020004FF0020200238DF80830D4E84F3F002B28
:1010300003D1C4E8412F0029F7D102D08DF8083040
:1010400063E014F10C0503D069462846FFF7DDFE86
:10105000BFF35F8F01236370BFF35F8F04F1080359
:10106000002053E8006F43E80002002AF9D1BFF3E3
:101070005F8F002E49D0FFF78DFD20B12946304605
:10108000FFF798FF3AE0314602A8FFF7B3FFE068A8
:10109000B4F9105008B101F0DBFF06901020ADF854
:1010A0001C50FEF7FCFF0546E8B1002787601820BA
:1010B000FEF7F5FF044688B10146876002A8FFF7F6
:1010C00054FF049BA268A360059B0492E26806A9F2
:1010D000E36004F110000592FFF797FE0D4B2C60C2
:1010E000EB600D4BAB6006A8FFF79EFE02A8FFF772
:1010F00083FE002229460948FFF754FD3046FFF7DA
:101100007BFE1021304600F074FF6846FFF78CFE2E
:1011100009B0F0BDC70F0A083D120A08B30D0A084E
:101120002DE9F04F8BB006460F46904699469DF844
:1011300050A0FFF773FD07AD834630BB4FF62E730B
:10114000059005A92846ADF81830FFF75EFE14207B
:10115000FEF7A5FF044658B1022303700123437034
:10116000C0F804B0C0F808B029460C30FFF74DFEB7
:101170003046214640F8044BFFF708FF2846FFF7AA
:1011800053FE05A8FFF750FE52E000240C23142064
:101190006C60AC600793FEF782FF014618B10470E3
:1011A00044704460846004A80391FFF7EFFE224B73
:1011B00008200893FEF773FF044628B1039B04A997
:1011C00040F8043BFFF7ACFE00955FFA8AF34A460D
:1011D000414638460994FFF731FD20B9039B5B78FF
:1011E00003F0FF0283B1039B04A906A80593FFF750
:1011F00097FE05A93046FFF782FE06A8FEF7D7FF47
:1012000004A8FEF7D4FF13E04FF69C7305A903A8CA
:101210000592ADF81830FFF7FDFE05A8FFF704FEB4
:1012200005A80999FFF783FE06A8FEF7C0FFDAE7D5
:1012300030460BB0BDE8F08FAD130A08022AF8B5AE
:10124000044606D0032A17D0012A22D10B68036076
:101250001FE018200E68FEF722FF054650B1314608
:10126000FFF7C8FE3069B6F9147008B101F0F0FE5E
:101270002861AF8225600CE0046854B104F11000CD
:10128000FFF7D2FD2046FFF7B7FD1821204600F0FA
:10129000B0FE0020F8BD38B5002383608B6804469B
:1012A0000D462BB102229847EB68E360AB68A36060
:1012B000204638BD022A70B5044606D0032A11D054
:1012C000012A18D10B68036015E014200E68FEF7A0
:1012D000E6FE054620B13146FFF7DDFF337C2B7477
:1012E000256008E0046834B12046FFF785FD14212D
:1012F000204600F07EFE002070BD0000F0B50C46D8
:10130000BFF35F8F87B0002350E8006F40E80032E2
:10131000002AF9D1BFF35F8F002E3FD01846FFF7A8
:1013200039FC074620B121463046FFF753FE2EE038
:10133000314601A8FFF7AFFF237810208DF8143055
:10134000FEF7ADFE0546D0B187601420FEF7A7FE7C
:10135000044678B18760014601A8FFF706FE039BAB
:10136000A268A360049B0392E268E3609DF81430D6
:10137000049223740A4B2C60EB600A4BAB6001A80B
:10138000FFF73AFD002229460748FFF70BFC3046DD
:10139000FFF732FD1021304600F02BFE07B0F0BD04
:1013A000E70F0A08B5120A08B30D0A0830B504465B
:1013B00085B00D4668461146FFF7B9FD7CB124B2F1
:1013C00028460DB101F044FE029002A96846ADF82E
:1013D0000C40FFF71FFE02A8FFF726FD1DE04FF0AF
:1013E000010200988DF80840D0E84F3FA34203D196
:1013F000C0E8412F0029F7D102D08DF808300CE069
:1014000010F10C014FF0010318BF0373BFF35F8F9E
:10141000043000F8033CFFF771FF01A8FEF7C7FE98
:1014200005B030BD7047F8B5064615460C468F1816
:10143000BC4206D0336814F8011B9B6830469847BD
:10144000F6E72846F8BD0022007CFFF7B9BA002174
:10145000007CFFF7BDBA0021007CFFF7C1BA002174
:10146000007CFFF7C5BA0021007CFFF7C9BA10B5B0
:101470000446142100F0BDFD204610BD10B5044601
:1014800008464FF47A73A360044B00212074616016
:101490002360FFF7C5FA204610BD00BF1C3B0A08B9
:1014A0000021007CFFF7B4BA704710B5044618213C
:1014B00000F09FFD204610BDF8B50F4600F108066C
:1014C000051D002416F8011D0A22384600F027F9F0
:1014D000AE42044407D0002CF4D02E21384600F050
:1014E000DBF80444EEE72046F8BD000010B50446E2
:1014F000044B112240F8043B002101F066FD204618
:1015000010BD00BF443B0A080346074A10B543F824
:10151000042B01F1100251F8044B914243F8044BA3
:10152000F9D10A781A7010BD443B0A08024A41609A
:101530000260042202757047443B0A0810B59DF80A
:10154000084044EA032343EA024242EA01610423D9
:101550004160037510BD000037B5044D05609DF86E
:1015600018500095FFF7EAFF03B030BD443B0A086E
:10157000014A024B1A6070470B3C0A0870020020B7
:1015800000231A464068FFF781BB00220221406811
:10159000FFF78CBB002211464068FFF77FBB00229B
:1015A00011464068FFF78ABB00231A461946406877
:1015B000FFF78CBB00231A4619464068FFF78EBB25
:1015C000002281F001014068FFF790BB00224068D3
:1015D000FFF79CBB002211464068FFF79FBB00222B
:1015E00011464068FFF78ABB70B516468EB00446B8
:1015F00008A8FFF77BFF1122002103A801F0E5FCFA
:10160000304601F040FD00250A4B009581B25B6831
:1016100003AA3046FFF796FA20B129462046FFF785
:1016200085FF03E003A92046FFF76EFF20460EB0BA
:1016300070BD00BF24070020024B034A1A6000223D
:101640005A607047740200203C3C0A08F8B5064610
:101650000D468F180024BD420CD0336815F8011BCD
:101660009B6830469847002801DB0444F3E7002CD0
:1016700008BF04462046F8BD70B505460C4608462E
:1016800049B101F000FD2B68024621462846BDE81D
:101690007040DB68184770BD03689B68184738B511
:1016A0000D210546FFF7F8FF0A2104462846FFF7FB
:1016B000F3FF204438BD38B50546FFF7DDFF04468B
:1016C0002846FFF7ECFF204438BD012A98BF0A22C4
:1016D00030B50B468BB000218DF824100DF123049A
:1016E000B3FBF2F505FB1233DBB2092B94BF3033A9
:1016F0003733DBB2214604F801392B46002DEFD1F8
:10170000FFF7BAFF0BB030BD10B422B90368C9B2FD
:101710009B6810BC1847D2B210BCFFF7D6BFFFF7CA
:10172000F3BF10B50446FFF767FB204610BD00006D
:10173000034800238360034A034900F055BC00BFFF
:101740007C0200209001002023170A08704710B582
:101750000446102100F04DFC204610BD70B5044633
:101760000E46074B0025036040F80C5FFFF7D0F8EA
:1017700030462671FFF75EF9A560204670BD00BFB8
:10178000703C0A080079FFF75DB9002303604360ED
:101790008360037310B50C6804604C6844608C6807
:1017A00084600B604B608B6010BD10B50446006810
:1017B000FFF7C4FA204610BD10B50446006808B112
:1017C000FFF7BCFA00232360A360636010BD38B547
:1017D00004460D4600680131FFF7B8FA10B184E8FD
:1017E0002100012038BD10B50368044613B14368D9
:1017F0008B4207D22046FFF7EAFF20B1A3680BB95E
:1018000022681370012010BD70B50E4611460446C3
:101810001546FFF7E8FF18B92046FFF7CDFF09E0AE
:101820002A463146A560206801F0C4FB2268A368FF
:101830000021D154204670BD38B500230446036012
:101840004360836003730D4639B1084601F01BFC09
:10185000294602462046FFF7D7FF204638BD88427A
:1018600010B50B46044607D0096819B19A68FFF70E
:10187000CBFF01E0FFF7A0FF204610BD10B50446E6
:1018800000230360436083600373FFF7E8FF204693
:1018900010BD08B582680B4612B919B9012008BD00
:1018A00011B90368187802E0006801F0BFFBB0FAD4
:1018B00080F0400908BD70B50E469AB191B18568B7
:1018C0009D4202D800230B7070BD541EED1AAC422D
:1018D00028BF2C46016822461944304601F0F0FB2F
:1018E0000023335570BD014600228C20FFF720B83D
:1018F0000020FFF7F8BF00004FF6FF72034B0020F7
:10190000187058809A80FFF72DB900BF8C02002014
:10191000F0B5144B144F1E68144B064418683B680E
:1019200006449E428BB01BD00AA840F8286D01F0F7
:1019300049FA0446436901AD03F26C7343610FCC6D
:101940000FC50FCC0FC5D4F800E0094CC5F800E076
:1019500001AD0FCD0FC40FCD0FC43E60C4F800E041
:101960000BB0F0BDC4020020C0020020BC02002069
:101970009402002008B50020FFF778F928B1FFF79E
:101980004DF980F00100C0B208BD012008BD10B5BE
:101990000020FEF7EDFF044668B9FFF7DBF80128E9
:1019A0000BD12046FFF706F938B9FFF7E3FF30B94E
:1019B000FFF724F9F9E7012010BD002010BDFFF763
:1019C000D9FF0020FEF7D4FF003018BF012010BD62
:1019D00008B5FFF7DCFFBDE80840FEF7C1BF000017
:1019E00008B5FFF7F5FFFFF793FF014B986808BDB7
:1019F0009402002008B5FFF7EBFFFFF789FF014BCA
:101A0000186808BD94020020024B1A68024B1A6045
:101A1000704700BFD4000020B80200207047417416
:101A2000704708B5007CFFF74DF820EAE07008BD6C
:101A300008B5007CFFF71EF820EAE07008BD08B585
:101A4000007CFFF727F830EA200028BF4FF0FF3076
:101A500008BD08B5007CFFF715F830EA200028BF64
:101A60004FF0FF3008BD007CFFF71CB810B50446EE
:101A7000142100F0BEFA204610BD70B5457C044626
:101A80000E4625B9007CFFF71DF8002805DD31461C
:101A9000207CBDE87040FEF7E5BF284670BD000021
:101AA00010B5044608461146002262604FF47A726F
:101AB000A260054A20742260012262741A46FEF771
:101AC000C9FF204610BD00BFA83C0A08007CFEF7F5
:101AD000F1BF000038B50C4D296811F0010411D197
:101AE0002846FEF7E0FA68B1084A2146084B094843
:101AF000FFF7D6FF2846FEF7DBFA074A07490548F5
:101B000000F072FA034838BD60030020640300202F
:101B1000DC020020C8020020900100201D1A0A08E3
:101B200041747047704708B50021007CFEF7F2FF52
:101B300030EA200028BF4FF0FF3008BD08B5012172
:101B4000007CFEF7E7FF30EA200028BF4FF0FF30AF
:101B500008BD08B5007CFEF7D5FF20EAE07008BD9F
:101B600008B5007CFEF7C6FF20EAE07008BD007CE7
:101B7000FEF7E0BF10B50446142100F03AFA204603
:101B800010BD38B50446007C0D46FEF7BBFF0028AB
:101B900001DC607C28B12946207CFEF7C3FF20EAE7
:101BA000E07038BD10B50446002363604FF47A73CB
:101BB000A360054B0846236001232174637411461A
:101BC000FEF788FF204610BDD83C0A080022007CA2
:101BD000FEF788BF10B504461422002101F0F5F984
:101BE000054B20466360054BE36040F201132381FF
:101BF0008123238210BD00BF6D040020EC03002070
:101C000030B50E4D87B001A8FFF7E4FF296811F049
:101C1000010410D12846FEF746FA60B101AA214618
:101C20000748FFF7BFFF2846FEF742FA054A064974
:101C3000034800F0D9F9024807B030BDE80300209E
:101C40007005002090010020251B0A0810B50446ED
:101C50001422002101F0B9F9054B20466360054BC1
:101C6000E36040F2011323818123238210BD00BF72
:101C7000200600208805002010B50E4C86B001A873
:101C8000FFF7E4FF2368DB0710D42046FEF70BFACA
:101C900060B101AA01210848FFF784FF2046FEF742
:101CA00007FA064A0649044800F09EF9024806B0C1
:101CB00010BD00BF840500200C060020900100200C
:101CC000251B0A08002211464068FEF7F7BFF0B551
:101CD000164689B011220F460446002103A801F0E0
:101CE00074F9304601F0CFF90025009581B27B6888
:101CF00003AA3046FEF726FF20B129462046FFF70B
:101D000015FC03E003A92046FFF7FEFB204609B0BF
:101D1000F0BD002211464068FEF7F0BF00221146D8
:101D20004068FEF7FBBF00224068FEF7EFBF0022CD
:101D300081F001014068FEF7D9BF00231A46194619
:101D40004068FEF7CBBF00231A4619464068FEF7ED
:101D5000BDBF002211464068FEF7A0BF002202214D
:101D60004068FEF7A3BF00231A464068FEF78EBF07
:101D7000024B04225A60024A1A607047240700206E
:101D8000083D0A0808B5144B33B1FFF739FF036863
:101D90001B699847002816DC104B33B1FFF79AFEF9
:101DA00003681B699847002810DC0D4B0BB1AFF39B
:101DB00000800C4B7BB1FFF75FFF03681B699847FE
:101DC000002806DC08BDAFF30080E5E7AFF3008034
:101DD000EBE7AFF3008008BD00000000000000004A
:101DE000000000000000000008B5FFF7CBFFFEF781
:101DF000AFFD014B186008BD340700200248034ABC
:101E00000349121A01F0D6B80040024004400240D3
:101E1000803F0A0807B5002300931A466FF0770148
:101E2000FEF7DAFE03B05DF804FB000007B5438857
:101E30000A2B08D0502B09D1094B1B683BB103B0CA
:101E40005DF804EB1847FFF7E5FF06E00023009379
:101E50001A466FF07701FEF7BFFE03B05DF804FB92
:101E60002C07002038B5104C104D2368AB42104BA6
:101E70000CBF012200221A7002D0FFF7BFFF2560BD
:101E8000FEF75EFD044601F0A9F80A4B13B12046A7
:101E9000AFF3008000210748FEF7F0FEBDE83840B0
:101EA00000210548FEF78EBE004002401E1C279A06
:101EB00030070020000000002D1E0A0810B504465F
:101EC0000F48FFF75FFC28B1A4F10D03022B01D8E6
:101ED000002010BD00F02EF8FFF7E2FA08B1012C47
:101EE000F6D9FFF7F7FDFFF7F1FD18B1A4F11203E2
:101EF000012BEDD9172C8CBF0020012010BD00BF95
:101F00006807002010B5044609289CBF0A34A4B213
:101F10002046FFF7D3FF50B103212046FEF740FDD6
:101F2000032804D12046BDE81040FEF741BD002043
:101F300010BD000038B50B4D296811F001040FD118
:101F40002846FEF7B0F858B121460748FFF796FA41
:101F50002846FEF7ADF8054A0549034800F044F865
:101F6000014838BD380700203C07002090010020C0
:101F700025140A0813B5084C00231A461946009385
:101F80002046FFF7E9FA2046044A054902B0BDE8B9
:101F9000104000F029B800BF500700209001002039
:101FA000A9140A0870B50C4C0C4E0D4D00212046AA
:101FB000FFF7D4FB20460B4C3246294600F014F8BC
:101FC00001212046FFF7CAFB324629462046BDE8DC
:101FD000704000F009B800BF6807002090010020A1
:101FE0004D170A08780700200B460146184600F0F6
:101FF000DBBEFEF756B808B5FEF7C0FE244B1A68E4
:10200000D0075CBF01221A60224B1A68D1075CBF5F
:1020100001221A60204B1A68D2075CBF01221A60A5
:102020001E4B1A68D0075CBF01221A601C4B1A684D
:10203000D1075CBF01221A601A4B1A68D2075CBF35
:1020400001221A60184B1A68D0075CBF01221A607F
:10205000164B1A68D1075CBF01221A60144B1A682C
:10206000D2075CBF01221A60124B1A68D0075CBF0E
:1020700001221A60104B1A68D1075CBF01221A6056
:102080000E4B1A68D2075CBF01221A60704700BF6E
:10209000B4070020B0070020AC070020A8070020EC
:1020A000A4070020A00700209C070020980700201C
:1020B00094070020900700208C070020880700204C
:1020C000184B1A68D1075CBF01221A60164B1A68B8
:1020D000D2075CBF01221A60144B1A68D0075CBF9C
:1020E00001221A60124B1A68D1075CBF01221A60E4
:1020F000104B1A68D2075CBF01221A600E4B1A6897
:10210000D0075CBF01221A600C4B1A68D1075CBF74
:1021100001221A600A4B1A68D2075CBF01221A60BA
:10212000704700BFD4070020D0070020CC07002054
:10213000C8070020C4070020C0070020BC070020FB
:10214000B8070020184B1A68D1075CBF01221A603B
:10215000164B1A68D2075CBF01221A60144B1A682A
:10216000D0075CBF01221A60124B1A68D1075CBF0E
:1021700001221A60104B1A68D2075CBF01221A6054
:102180000E4B1A68D0075CBF01221A600C4B1A680C
:10219000D1075CBF01221A600A4B1A68D2075CBFE4
:1021A00001221A60704700BFF4070020F0070020EA
:1021B000EC070020E8070020E4070020E0070020EB
:1021C000DC070020D8070020244B1A68D0075CBF2A
:1021D00001221A60224B1A68D1075CBF01221A60E3
:1021E000204B1A68D2075CBF01221A601E4B1A6886
:1021F000D0075CBF01221A601C4B1A68D1075CBF74
:1022000001221A601A4B1A68D2075CBF01221A60B9
:10221000184B1A68D0075CBF01221A60164B1A6867
:10222000D1075CBF01221A60144B1A68D2075CBF49
:1022300001221A60124B1A68D0075CBF01221A6093
:10224000104B1A68D1075CBF01221A600E4B1A6846
:10225000D2075CBF01221A60704700BF240800202B
:10226000200800201C080020180800201408002066
:10227000100800200C080020080800200408002096
:1022800000080020FC070020F80700202DE9F04F8F
:102290008BB004460D4600F055F8284B064693F9DE
:1022A00000A00F46BAF1FF3F12D022462B4620462F
:1022B000294600F05FFD834650B94FF000084FF00B
:1022C00000092046294642464B4600F02BFD20B926
:1022D000304639460BB0BDE8F08F194A0123CDF8DE
:1022E00020B0CDE90445CDE9024501920093BAF151
:1022F000000F15D042464B464046494600F0CAFB07
:10230000BAF1020FCDE906010CD1FEF747FD2123FA
:102310000360089B63B9DDE906010BB0BDE8F08FEF
:10232000CDE90689684600F0D1F80028F1D1ECE744
:10233000FEF734FD089B0360EDE700BFD8000020E6
:10234000343D0A082DE9F0415F4E0C46B6460E407A
:102350007645054600F0988000290B46024674DD5C
:102360005FEA215E7FD0AEF2FF3EC3F313031EF09F
:10237000010F43F4801363D100273E4603EBD27173
:102380000B444FEA6E0E520016204FF400117418E1
:102390009C424FEAD2754FEA420202DC1B1B6618D0
:1023A0000F44013805EB43034FEA5101EFD1844656
:1023B00020244FF0004109E020D003EBD275013C0E
:1023C0004FEA51012B444FEA420220D09E4201EBDA
:1023D0000C05F1DA002D05EB010C09DBB046954246
:1023E000A3EB060300D9013B4646521B0844E4E731
:1023F000BCF1000FF2DB06F10108F0E7954217D8B7
:10240000002D05EB010C49DB98460023ECE7134354
:1024100010D140087B1003F17F5303F50013FA0736
:1024200003EB0E57394648BF40F00040BDE8F0814D
:102430003346C2E7411C35D000F001031844E8E7F9
:102440005B0003EBD273520096E721F0004606438F
:10245000ECD079BB8E46D30AAEF1150E5205002B97
:10246000F9D0DD0221D4002100E001465B00DC024E
:1024700001F10100F9D5C0F1200422FA04F423434C
:10248000C1EB0E0E82406EE702460B4600F0D8F913
:102490002A46234600F022F8BDE8F081BCF1000F87
:1024A000A9DAB1E701372046B4E720244FF0FF3125
:1024B0000020E2E702460B4600F00EF802460B460B
:1024C00000F0E8FAB2E700BF0000F07F002070479C
:1024D00081F0004102E000BF83F0004330B54FEAD5
:1024E00041044FEA430594EA050F08BF90EA020F42
:1024F0001FBF54EA000C55EA020C7FEA645C7FEAD5
:10250000655C00F0E2804FEA5454D4EB5555B8BFF7
:102510006D420CDD2C4480EA020281EA030382EA68
:10252000000083EA010180EA020281EA0303362DFA
:1025300088BF30BD11F0004F4FEA01314FF4801CCD
:102540004CEA113102D0404261EB410113F0004FDF
:102550004FEA03334CEA133302D0524263EB430396
:1025600094EA050F00F0A780A4F10104D5F1200E34
:102570000DDB02FA0EFC22FA05F2801841F100018F
:1025800003FA0EF2801843FA05F359410EE0A5F163
:1025900020050EF1200E012A03FA0EFC28BF4CF094
:1025A000020C43FA05F3C01851EBE37101F000454A
:1025B00007D54FF0000EDCF1000C7EEB00006EEB57
:1025C0000101B1F5801F1BD3B1F5001F0CD34908E1
:1025D0005FEA30004FEA3C0C04F101044FEA445238
:1025E00012F5800F80F09A80BCF1004F08BF5FEABF
:1025F000500C50F1000041EB045141EA050130BD9F
:102600005FEA4C0C404141EB010111F4801FA4F141
:102610000104E9D191F0000F04BF01460020B1FA96
:1026200081F308BF2033A3F10B03B3F120020CDACE
:102630000C3208DD02F1140CC2F10C0201FA0CF0AC
:1026400021FA02F10CE002F11402D8BFC2F1200C11
:1026500001FA02F120FA0CFCDCBF41EA0C019040C7
:10266000E41AA2BF01EB0451294330BD6FEA040410
:102670001F3C1CDA0C340EDC04F11404C4F12002FB
:1026800020FA04F001FA02F340EA030021FA04F30D
:1026900045EA030130BDC4F10C04C4F1200220FA64
:1026A00002F001FA04F340EA0300294630BD21FAA2
:1026B00004F0294630BD94F0000F83F4801306BF68
:1026C00081F480110134013D4EE77FEA645C18BF5C
:1026D0007FEA655C29D094EA050F08BF90EA020FF3
:1026E00005D054EA000C04BF1946104630BD91EAEB
:1026F000030F1EBF0021002030BD5FEA545C05D1EE
:102700004000494128BF41F0004130BD14F580042C
:102710003CBF01F5801130BD01F0004545F0FE41A0
:1027200041F470014FF0000030BD7FEA645C1ABFD5
:10273000194610467FEA655C1CBF0B46024650EA0C
:10274000013406BF52EA033591EA030F41F4002138
:1027500030BD00BF90F0000F04BF0021704730B5BE
:102760004FF4806404F132044FF000054FF0000193
:1027700050E700BF90F0000F04BF0021704730B554
:102780004FF4806404F1320410F0004548BF404229
:102790004FF000013EE700BF42004FEAE2014FEA7E
:1027A00031014FEA02701FBF12F07F4393F07F4F59
:1027B00081F06051704792F0000F14BF93F07F4F8B
:1027C000704730B54FF4607401F0004521F00041CE
:1027D00020E700BF50EA010208BF704730B54FF054
:1027E00000050AE050EA010208BF704730B511F059
:1027F000004502D5404261EB41014FF4806404F191
:1028000032045FEA915C3FF4DCAE4FF003025FEA12
:10281000DC0C18BF03325FEADC0C18BF033202EB9A
:10282000DC02C2F1200300FA03FC20FA02F001FAF4
:1028300003FE40EA0E0021FA02F11444C1E600BF93
:1028400070B54FF0FF0C4CF4E06C1CEA11541DBF46
:102850001CEA135594EA0C0F95EA0C0F00F0DEF811
:102860002C4481EA030621EA4C5123EA4C5350EAF6
:10287000013518BF52EA033541F4801143F4801347
:1028800038D0A0FB02CE4FF00005E1FB02E506F0D8
:102890000042E0FB03E54FF00006E1FB03569CF02D
:1028A000000F18BF4EF0010EA4F1FF04B6F5007F33
:1028B00064F5407404D25FEA4E0E6D4146EB0606A5
:1028C00042EAC62141EA55514FEAC52040EA5E502E
:1028D0004FEACE2EB4F1FD0C88BFBCF5E06F1ED8D8
:1028E000BEF1004F08BF5FEA500E50F1000041EB0F
:1028F000045170BD06F0004646EA010140EA0200BC
:1029000081EA0301B4EB5C04C2BFD4EB0C0541EADD
:10291000045170BD41F480114FF0000E013C00F3F2
:10292000AB8014F1360FDEBF002001F0004170BD16
:10293000C4F10004203C35DA0C341BDC04F114042F
:10294000C4F1200500FA05F320FA04F001FA05F2BB
:1029500040EA020001F0004221F0004110EBD37088
:1029600021FA04F642EB06015EEA430E08BF20EAB4
:10297000D37070BDC4F10C04C4F1200500FA04F357
:1029800020FA05F001FA04F240EA020001F00041E9
:1029900010EBD37041F100015EEA430E08BF20EA5C
:1029A000D37070BDC4F1200500FA05F24EEA020EA4
:1029B00020FA04F301FA05F243EA020321FA04F0D3
:1029C00001F0004121FA04F220EA020000EBD3708A
:1029D0005EEA430E08BF20EAD37070BD94F0000F8A
:1029E0000FD101F00046400041EB010111F4801FBE
:1029F00008BF013CF7D041EA060195F0000F18BF6F
:102A0000704703F00046520043EB030313F4801FAA
:102A100008BF013DF7D043EA0603704794EA0C0F64
:102A20000CEA135518BF95EA0C0F0CD050EA41067A
:102A300018BF52EA4306D1D181EA030101F00041F7
:102A40004FF0000070BD50EA410606BF104619461F
:102A500052EA430619D094EA0C0F02D150EA01362B
:102A600013D195EA0C0F05D152EA03361CBF10466C
:102A700019460AD181EA030101F0004141F0FE410B
:102A800041F470014FF0000070BD41F0FE4141F48F
:102A9000780170BD70B54FF0FF0C4CF4E06C1CEA8F
:102AA00011541DBF1CEA135594EA0C0F95EA0C0F44
:102AB00000F0A7F8A4EB050481EA030E52EA0335FF
:102AC0004FEA013100F088804FEA03334FF0805520
:102AD00045EA131343EA12634FEA022245EA11154D
:102AE00045EA10654FEA00260EF000419D4208BFFE
:102AF000964244F1FD0404F5407402D25B084FEAAB
:102B00003202B61A65EB03055B084FEA32024FF456
:102B100080104FF4002CB6EB020E75EB030E22BFB3
:102B2000B61A754640EA0C005B084FEA3202B6EB73
:102B3000020E75EB030E22BFB61A754640EA5C0022
:102B40005B084FEA3202B6EB020E75EB030E22BFB2
:102B5000B61A754640EA9C005B084FEA3202B6EBB3
:102B6000020E75EB030E22BFB61A754640EADC0072
:102B700055EA060E18D04FEA051545EA16754FEAD4
:102B800006164FEAC30343EA52734FEAC2025FEAF2
:102B90001C1CC0D111F4801F0BD141EA00014FF081
:102BA00000004FF0004CB6E711F4801F04BF014352
:102BB0000020B4F1FD0C88BFBCF5E06F3FF6AFAE6E
:102BC000B5EB030C04BFB6EB020C5FEA500C50F1FE
:102BD000000041EB045170BD0EF0004E4EEA113181
:102BE00014EB5C04C2BFD4EB0C0541EA045170BD88
:102BF00041F480114FF0000E013C90E645EA060ECC
:102C00008DE60CEA135594EA0C0F08BF95EA0C0FF9
:102C10003FF43BAF94EA0C0F0AD150EA01347FF441
:102C200034AF95EA0C0F7FF425AF104619462CE718
:102C300095EA0C0F06D152EA03353FF4FDAE10467B
:102C4000194622E750EA410618BF52EA43067FF4CC
:102C5000C5AE50EA41047FF40DAF52EA43057FF45C
:102C6000EBAE12E74FF0FF3C06E000BF4FF0010C67
:102C700002E000BF4FF0010C4DF804CD4FEA410CCB
:102C80007FEA6C5C4FEA430C18BF7FEA6C5C1BD098
:102C900001B050EA410C0CBF52EA430C91EA030F19
:102CA00002BF90EA020F0020704710F1000F91EA76
:102CB000030F58BF994208BF90422CBFD8176FEA44
:102CC000E37040F0010070474FEA410C7FEA6C5C12
:102CD00002D150EA013C07D14FEA430C7FEA6C5C19
:102CE000D6D152EA033CD3D05DF8040B704700BF45
:102CF0008446104662468C461946634600E000BF93
:102D000001B5FFF7B7FF002848BF10F1000F01BD64
:102D10004DF808EDFFF7F4FF0CBF012000205DF82F
:102D200008FB00BF4DF808EDFFF7EAFF34BF0120B4
:102D300000205DF808FB00BF4DF808EDFFF7E0FF4D
:102D400094BF012000205DF808FB00BF4DF808ED9E
:102D5000FFF7CEFF94BF012000205DF808FB00BF05
:102D60004DF808EDFFF7C4FF34BF012000205DF8E7
:102D700008FB00BF4FEA410C7FEA6C5C02D150EACD
:102D8000013C0AD14FEA430C7FEA6C5C02D152EA63
:102D9000033C02D14FF0000070474FF00100704734
:102DA0000A22002100F026BA10B5054C13462CB1BA
:102DB0000A4601460220AFF3008010BD204610BD38
:102DC0000000000038B5074B05461C68E36B1BB9D3
:102DD0002420FDF7ABFFE063E16B2846BDE83840F7
:102DE00000F002B8400100202DE9F0410C46804679
:102DF00000F006FD21460746404600F005FD466905
:102E0000044606F26C76B30705D1642296FBF2F312
:102E100002FB13634BB94FF4C87596FBF5F305FB42
:102E20001365B5FA85F35B0900E001235F4A30259D
:102E300005FB032500F018FB00F018FB5C4B1B683A
:102E4000F3B17B689E4205D13968D8F80030FA6941
:102E500041B90AE0304600F05FFA0028F4D14FF0A3
:102E6000FF330DE0934208DB01E0934207DABA6BCF
:102E70009342ACBF0023012302E0002300E00123C2
:102E80002362236A3C20012B0CBFF96B396A4FF493
:102E9000616391FBF3F603FB161393FBF0F200FB67
:102EA000123061682368891AA2681B1A921B3B2B97
:102EB00023606160A26003DD013161603C3B04E09E
:102EC000002B03DA013961603C33236063683B2BDC
:102ED00003DD0132A2603C3B04E0002B03DA013A3F
:102EE000A2603C336360A368172B22DDE269183BC4
:102EF0000132E261A269A3600132062AC8BF002242
:102F0000A261E26823690132E26055F823108A4227
:102F100046DD01330C2B08BF6369A2EB0102E260BE
:102F200005BF013300222361226104BF6361E261B6
:102F300036E0002B34DAE2691833013AE261A26923
:102F4000A360013A48BF0622A261E268013AE2604A
:102F500032BB2369013B01D423611DE00B232361B4
:102F600063695A1E12F0030F626103F26B7305D19D
:102F7000642193FBF1F201FB12324AB94FF4C8719C
:102F800093FBF1F201FB1233B3FA83F35B0900E028
:102F9000012303F5B673E361236955F82330E36039
:102FA00000F063FA2046BDE8F08100BFA43E0A08A5
:102FB0004408002010B5431E0A44914204D011F881
:102FC000014B03F8014FF8E710BD0346024493425A
:102FD00002D003F8011BFAE77047000038B5124B26
:102FE00005461C68A36BD3B91820FDF79FFE43F27A
:102FF0000E33A06303804AF6CD33438041F234237D
:1030000083804EF26D63C3804DF6EC63038105232C
:1030100043810B23838101220023C0E90423A36B96
:1030200000221D615A6138BD4001002010F8012BBB
:1030300011F8013B012A28BF9A42F7D0D01A7047F5
:10304000034611F8012B03F8012B002AF9D1704730
:10305000024B0146186800F003B800BF4001002091
:1030600070B5064608460C4600F00DF8451C29468A
:103070003046FDF78BFE064618B12A462146FFF77B
:1030800099FF304670BD034613F8012B002AFBD18F
:10309000181A0138704730B582B1451E013915F84C
:1030A000013F11F8014FA34206D1EC431444E04222
:1030B00001D0002BF3D11C46181B30BD104630BD8B
:1030C000034610B542B111F8014B013A03F8014B28
:1030D000002CF7D11A4400E010BD934202D003F84F
:1030E000014BFAE710BD00002DE9F0470F4680467E
:1030F0003F48D0F800903D4615F8014B09EB04001D
:10310000407800F0080000F0FF0608B12F46F2E713
:103110002D2C03D1BD1C7C78012603E02B2C04BF91
:103120007C78BD1C13B1102B0AD15BE0302C57D139
:10313000287800F0DF0058284DD16C781023023534
:10314000002E14BF4FF0004C6FF0004CBCFBF3FAA4
:103150000027384603FB1ACC09EB040E9EF801E069
:103160001EF0040F01D0303C0BE01EF0030E1BD00C
:10317000BEF1010F0CBF4FF0370E4FF0570ECEEBE4
:103180000404A34210DDB7F1FF3F0AD0504506D832
:1031900001D1644503DC03FB0040012701E04FF04F
:1031A000FF3715F8014BD7E77B1C0CD1002E4FF0F1
:1031B000220314BF4FF000406FF00040C8F8003009
:1031C0002AB9BDE8F08706B1404272B107B1691E65
:1031D0001160BDE8F0873024002BB1D10823AFE7A0
:1031E0000A23ADE7302CA3D0AAE7BDE8F08700BFE3
:1031F000DC00002013460A46014602480068FFF73B
:1032000073BF00BF400100202DE9F0470E46804605
:103210003B48D0F80090354615F8014B09EB040007
:10322000407800F0080000F0FF0708B12E46F2E7F2
:103230002D2C03D1B51C7478012703E02B2C04BF7F
:103240007478B51C13B1102B0AD153E0302C4FD138
:10325000287800F0DF00582845D16C78102302351B
:103260004FF0FF3CBCFBF3FC03FB0CFA00266FEABB
:103270000A0A304609EB040E9EF801E01EF0040F26
:1032800001D0303C0BE01EF0030E1AD0BEF1010F4E
:103290000CBF4FF0370E4FF0570ECEEB0404A34295
:1032A0000FDD002E08DB604506D801D1544503DC54
:1032B00003FB0040012601E04FF0FF3615F8014BFB
:1032C000D8E7002E07DA2223C8F800304FF0FF308D
:1032D0002AB9BDE8F08707B1404272B106B1691E54
:1032E0001160BDE8F0873024002BB9D10823B7E77F
:1032F0000A23B5E7302CABD0B2E7BDE8F08700BFBA
:10330000DC00002013460A46014602480068FFF729
:103310007BBF00BF400100202DE9F74F044600F0BD
:103320006FFA40F2B1739C4240F3968040F26D1503
:103330006FF4F663E318A4F2B2729B1005FB02353A
:10334000A4F26D726FF0630392FBF3F36FF4C86243
:103350002B44A5184FF4C87294FBF2F795FBF2F5D5
:1033600002FB17471D44642394FBF3F6B7FA87FE6C
:10337000014603FB164600F13803019304F00303F2
:1033800044604FEA5E1E00934FF0070C0B7A4A2B05
:103390000ED14B69009AEC1802B906B927B93B2B3C
:1033A000D4BF0023012300E000232344013B3FE07E
:1033B000442B02D14B692B443AE0009B2BB9002EE1
:1033C0000CBFF0464FF0010800E0F046A946244B40
:1033D000302202FB0838CC68A8F1040A0123A3427A
:1033E00004DA5AF804BF0133D944F8E709F10403B9
:1033F00093FBFCFBCBEBCB0ACAEB030A4B69012C1A
:10340000B8BF0124B3EB0A0A0B6904F1804403F14D
:10341000FF3304F1FF3448BF0AF1070AC3EBC303CB
:1034200058F824405344A34201DB073BFBE74B44DD
:103430008C690C4A02FB03430C6A234441F81C3F8D
:10344000019B9942A2D1C369826B9342ACBF002316
:1034500001230360012000E0002003B0BDE8F08FED
:10346000A43E0A088051010070477047014B18685C
:1034700000F002B8400100202DE9F04F8DB0074662
:1034800000F0BEF9B0490446384600F0B1F9AF4E3D
:10349000054660B9AE4BAF4A1860AF4B1860AF4BF2
:1034A00030681A605A60FDF749FC356048E13168C0
:1034B00079B93068FDF742FC2846FFF7E4FD411C6E
:1034C0003846FDF763FC306048B12946FFF7B8FD88
:1034D00005E0FFF7ABFD002800F03281E9E72B782B
:1034E0000AAE3A2B08BF013533469D4A9D4928460E
:1034F000FDF734FC002840F323810A9BEF18EB5CB6
:103500002D2B03D101374FF0FF3503E02B2B08BFE4
:10351000013701250DF1200A0DF11E0B4FF00008B7
:103520000396CDF808A00196CDF800B0334607AA5F
:103530008D493846ADF81E80ADF82080FDF70EFCB1
:10354000404540F3FD80BDF81E20BDF820303C21F1
:1035500001FB0233BDF81C204FF4616101FB023313
:103560005D437F4B25627D4DDFF808922B600A9BFF
:103570004A461F447B4933463846FDF7EFFB40453A
:1035800008DC2B68226A6B60714B1A60724BC3F8BF
:103590000080D5E00A9BC5F80490FD18FB5C2D2B3C
:1035A00003D101354FF0FF3703E02B2B08BF013566
:1035B00001270023ADF81C30ADF81E30ADF82030E7
:1035C0000A930396CDF808A00196CDF800B03346D3
:1035D00007AA65492846FDF7C1FB002804DC236AD9
:1035E000A3F56163E3630EE0BDF81E20BDF8203053
:1035F0003C2101FB0233BDF81C204FF4616101FB4B
:1036000002335F43E76327460A9B4FF000091D44DE
:103610002B782C2B08BF013595F80080B8F14D0FA1
:1036200026D10DF12603029309AB00930396019670
:1036300033460DF122024D492846FDF78FFB032842
:103640007ED1BDF822104B1E0B2B79D8BDF824205B
:10365000531E042B74D8BDF82630062B70D887F87B
:103660000880F9603A617B610A9B05EB03082AE058
:10367000B8F14A0F06BF4346013544230A220BA97D
:1036800028460593FFF73EFEDDF82C80ADF82600B6
:103690004545059B14D14D23B9F1000F07D1237285
:1036A0000323E36002232361C4F814900BE084F841
:1036B00024300B23A3620123E3620023236302E08F
:1036C00080B23B7278610223ADF81C300023ADF864
:1036D0001E30ADF820300A9398F800302F2B0BD114
:1036E0000396CDF808A00196CDF800B0334607AA9E
:1036F0001F494046FDF732FBBDF81E20BDF82030C3
:103700003C2101FB0233BDF81C204FF4616101FB39
:103710000233BB610A9D09F10109B9F1020F454469
:1037200007F11C077FF474AF6068FFF7F5FD226AAC
:10373000074B1A60E36B9B1A074A18BF01231360FB
:103740000DB0BDE8F08F00BF043F0A08400800201C
:1037500048080020073F0A084408002044010020D0
:10376000330800200B3F0A082E3F0A081A3F0A08B8
:103770002D3F0A08280800202DE9F84F07468B4600
:10378000904600F0D7F8194B1D689A463DB15C464B
:10379000234613F8012B42B13D2A1C46F8D1384686
:1037A00000F0C9F80020BDE8F88FCBEB0404A9466F
:1037B00059F8040B0028F2D022465946FFF76BFC5B
:1037C00088B959F8043C1E191B5D3D2B0BD1DAF862
:1037D00000303846ED1AAD10C8F8005000F0ABF8D4
:1037E000701CBDE8F88F4D46E1E700BF8C0100205A
:1037F00007B501AAFFF7C0FF03B05DF804FB0000A6
:10380000004870474C0100200268464BF0B592FB1F
:10381000F3F403FB1422002ABCBF02F5A83202F520
:10382000C0724FF4616092FBF0F300FB13224FF083
:103830003C008B6092FBF0F300FB132204F52F2475
:10384000ACBF04F66C2404F66B244B600A600723BB
:10385000E21C92FBF3F3344DC3EBC30394FBF5F589
:10386000D31A48F6AC6240F2B4578B612F4B304804
:1038700003FB0544B4FBF2F2B4FBF7F3B4FBF0F046
:103880002244D21A48F69466131A40F26D12B3FB22
:10389000F6F6B3FBF2F0B3FBF7F33444E31A02FBA2
:1038A000103303EB830299240232B2FBF4F2544347
:1038B000A61C0524B6FBF4F40A2A34BF02266FF0D6
:1038C000090616444FF4C87202FB05055F1C012E61
:1038D00098BF0135B3F5997FA7EB040702D3A3F591
:1038E000997214E0820705D16424B0FBF4F204FB62
:1038F00012024AB94FF4C872B0FBF2F402FB140092
:10390000B0FA80F2520900E001223B331A44A5F2DA
:103910006C750023CA614D610E61CF600B62084671
:10392000F0BD00BF80510100B13A02004FC5FDFF5C
:10393000B03A02007047704721000A0861000A0887
:103940008D000A0891000A0800000000537461729B
:10395000747570205375636365737366756C0000CE
:103960000000000000000000000000000000000057
:103970000000000000000000000000000000000047
:103980000000000000000000000000007B226375C2
:103990007272656E74223A25342E31667D0063752D
:1039A0007272656E742D776562686F6F6B004E6F13
:1039B000204461746100556269646F747320486FBC
:1039C0006F6B00526573706F6E736520526563652F
:1039D000697665640053746174650053657420569C
:1039E0006572626F7365204D6F6465003000436CD3
:1039F000656172656420566572626F7365204D6FF4
:103A000064650046726F6D20257320746F202573E6
:103A1000005374617465205472616E736974696FC8
:103A20006E004572726F722074616B696E67204D13
:103A30006561737572656D656E7473007370617224
:103A40006B2F6465766963652F73657373696F6E39
:103A50002F656E64004572726F72205374617465D5
:103A6000202D20526573657400436F6D6D616E6427
:103A7000206163636570746564202D2073656E73C7
:103A8000696E67206E6F770046756E6374696F6E3E
:103A900000436F6D6D616E64206163636570746572
:103AA00064202D207265706F7274696E67206E6F6E
:103AB0007700766572626F73654D6F646500476568
:103AC000742D52656164696E670053656E642D5292
:103AD00065706F7274004661696C656420746F2054
:103AE000636F6E6E656374005374617274757000F9
:103AF000312E303100000000000000000000000006
:103B0000DB0D0A08E10D0A08370E0A08EF0D0A0856
:103B1000DD0D0A08000000000000000025140A085E
:103B20006F140A0847140A0827140A084F140A08D1
:103B300057140A085F140A0867140A0800000000F6
:103B400000000000B9140A08A9140A08AB140A08F6
:103B500066006C6E00666E00636F64650064657479
:103B600061696C000D0A00253031307520005D2040
:103B7000002564002C200028293A2000205B0063E7
:103B80006F6465203D200025690064657461696C7F
:103B900073203D2000626175640053657269616C39
:103BA0000055534253657269616C310074797065D8
:103BB00000706172616D00636D6400696400686E1D
:103BC00064007374726D0066696C74006C766C00CE
:103BD00061646448616E646C65720072656D6F76D5
:103BE0006548616E646C657200656E756D48616EE6
:103BF000646C657273004A534F4E53747265616D05
:103C00004C6F6748616E646C657200617070006E25
:103C10006F6E6500747261636500696E666F007730
:103C200061726E006572726F720070616E6963001E
:103C3000616C6C00000000000000000081150A08A3
:103C40008B150A0895150A089F150A08A9150A0870
:103C5000B5150A08C1150A08CD150A08D5150A08B0
:103C6000DF150A08E9150A0800000000000000003E
:103C70004D170A084F170A08252B3033643A2530B0
:103C800032750025592D256D2D25645425483A257A
:103C90004D3A2553257A0061736374696D650000A0
:103CA00000000000000000001D1A0A086D1A0A0832
:103CB0007B1A0A084D160A08311A0A08531A0A080C
:103CC0003F1A0A08671A0A081F1A0A08231A0A085C
:103CD0000000000000000000251B0A08751B0A08F0
:103CE000831B0A084D160A08611B0A08271B0A08CD
:103CF0003D1B0A086F1B0A08531B0A08211B0A08F0
:103D00000000000000000000671D0A085D1D0A0891
:103D1000531D0A08C51C0A08471D0A083B1D0A084E
:103D20002F1D0A08271D0A081D1D0A08131D0A0851
:103D3000CF1C0A087371727400000000002020205C
:103D4000202020202020282828282820202020204B
:103D5000202020202020202020202020208810101B
:103D60001010101010101010101010101004040477
:103D70000404040404040410101010101010414135
:103D80004141414101010101010101010101010123
:103D90000101010101010101101010101010424237
:103DA00042424242020202020202020202020202F3
:103DB0000202020202020202101010102000000093
:103DC00000000000000000000000000000000000F3
:103DD00000000000000000000000000000000000E3
:103DE00000000000000000000000000000000000D3
:103DF00000000000000000000000000000000000C3
:103E000000000000000000000000000000000000B2
:103E100000000000000000000000000000000000A2
:103E20000000000000000000000000000000000092
:103E30000000000000000000000000000000000082
:103E40000000000000000000000000000000000072
:103E50000000000000000000000000000000000062
:103E60000000000000000000000000000000000052
:103E70000000000000000000000000000000000042
:103E80000000000000000000000000000000000032
:103E90000000000000000000000000000000000022
:103EA000430000001F0000001C0000001F00000075
:103EB0001E0000001F0000001E0000001F00000088
:103EC0001F0000001E0000001F0000001E00000078
:103ED0001F0000001F0000001D0000001F00000068
:103EE0001E0000001F0000001E0000001F00000058
:103EF0001F0000001E0000001F0000001E00000048
:103F00001F000000545A00474D54002531305B5EBD
:103F1000302D392C2B2D5D256E004D256875256EB5
:103F20002E256875256E2E256875256E002F25684F
:103F300075256E3A256875256E3A256875256E00DB
:103F4000F5070A080D090A0871150A0839160A0842
:103F500031170A08F9180A08091A0A08711D0A080F
:103F6000751F0A08A51F0A08FD1F0A08C1200A08B4
:103F700045210A08C9210A080000000000000000CD
:043F8000000000003D
:103F8400496E697469616C697A650000000000001B
:103F9400000000000000000000004572726F720013
:103FA400000000000000000000000000000000000D
:103FB4000000000049646C6500000000000000007F
:103FC40000000000000000000000000000004D653B
:103FD40061737572696E67000000000000000000E4
:103FE40000000000000000005265706F7274696E7A
:103FF4006700000000000000000000000000000056
:104004000000526573706F6E7365205761697400A8
:10401400000000000000000000000000000000009C
:10402400000000000000000000000000000000008C
:10403400000000000000000000000000000000007C
:10404400000000000000000000000000000000006C
:1040540001010000973C0A08010000003C3D0A08E9
:1040640000000000403E0A08603E0A08803E0A083C
:10407400000000000000000000000000000000003C
:10408400A03E0A080000000000000000000000003C
:10409400000000000000000000000000000000001C
:1040A400000000000000000000000000000000000C
:1040B40000000000000000000000000000000000FC
:1040C400E0000020073F0A08073F0A08010000003B
:1040D400000000004A000000000000000000000092
:1040E40000000000000000000000000000000000CC
:1040F4004A00000000000000000000000000000072
:104104000000000000000000000000004C08002037
:10411400FFFFFFFF00000102030405060708090A68
:104124000B0C0D0E0F101112131415161718191A63
:084134001B1C1D1E1F202800AA
:04413C00785634126B
:04000005080A0020C5
:00000001FF
