:02000004080AE8
:1000000000000A085C3D0A08000006000600050121
:080010000402E80500000000F5
:04001800E0350A08BD
:1000200009480A4908B5884205D0094A824202D0E7
:10003000121A02F013FE0748074A0021121A02F0B2
:1000400018FE064808BD00BF00000020A43B0A08B7
:10005000900100209001002050080020500800204E
:1000600070B501F019FD074B074C1E46E41AA408B1
:100070000025A54204D056F8253098470135F8E709
:1000800070BD00BF6C3B0A08A03B0A0800F094B8A2
:1000900008B500F0C9F9BDE8084001F0BFBC00F0A8
:1000A00049BD00F04FBD0078B0FA80F040097047BC
:1000B00001230370704710B50446006808B100F0D2
:1000C00041FD204610BD37B505469DF81840234335
:1000D0008DF800303C2300F0DDFE284603B030BD33
:1000E00008B54FF4B961024800F0BAFA012008BD22
:1000F000C00100202DE9D04300F08CFC40F2E7362F
:100100004FF496740027002000F04EFB80464FF01D
:100110000009002000F048FBB0EB080061EB09018A
:100120008F4208BF864205D300F07CFC10B900F076
:1001300069FCEEE700F076FC18B1BDE8D04300F0B2
:1001400071BC00F019FB034B186000F05BFC013C34
:10015000F3D0D8E75007002008B500F00DFB044BA2
:100160001B68C01AB0F57A7F34BF0020012008BD9B
:10017000B401002008B5FFF7EFFF18B1BDE8084053
:10018000FFF7EABF00F03EFCF5E738B50468054626
:100190007CB16368013B63605BB9236820469B6860
:1001A0009847A368013BA3601BB923682046DB681E
:1001B0009847284638BD000070B5B8B008AA154663
:1001C0002D4B03F11006144618685968083303C410
:1001D000B3422246F7D119889B782180A3702D2243
:1001E00000210DF13300254C02F043FD022304A849
:1001F000237000F01FFC00237D2218A904A801F041
:100200006AF90023019300931A461D4918A800F0CB
:1002100021FCFFF76FFF48B90123237000F0ACFA0F
:10022000184B19491860284602F05EFD10A3D3E967
:1002300000230C21154800F007FA154B1B7863B119
:10024000144B00221B7802A88DF8002012492A4680
:10025000FFF739FF03A8FFF798FF00F08DFA0F4B67
:10026000186004A801F030F938B070BDAFF3008019
:100270006666666666C65B40F4350A08A80100201B
:1002800011030A08A401002034360A08C001002026
:1002900000000020B001002046360A08B40100200A
:1002A00000B54FF4B9618DB0124800F0D9F9124A87
:1002B000CDE90001202104A800F054FC0F4B0022DE
:1002C0001B780F498DF8002002A804AAFFF7FBFE57
:1002D00003A8FFF75AFF01F0A1F90A4B0122187099
:1002E000094B1A7000F048FA084B18600DB05DF821
:1002F00004FB00BFC00100204E360A08B0010020F8
:1003000060360A0894010020D1000020B8010020C6
:1003100030B50C4685B01D4D51B92B78002B32D02D
:10032000FFF728FF1A4B1B4A1B788DF8004023E08B
:10033000084602F089FBC83801282B7813D873B11E
:10034000FFF718FF124B00221B7802A88DF800203F
:100350001149124AFFF7B7FE03A8FFF716FF104B2B
:1003600000221A700FE073B1FFF704FF084B002260
:100370001B788DF80020224602A80A49FFF7A3FE49
:1003800003A8FFF702FF05B030BD00BF000000204A
:10039000B001002070360A0897360A0885360A0828
:1003A000D100002078360A0830B5184D18492A784F
:1003B0001A2303FB0212174C8FB02078009203FB24
:1003C0000013154A282104A800F0CCFB2B782370D9
:1003D00000F028FB90B1FFF7CDFE104B00221B78F8
:1003E0000F498DF8002002A804AAFFF76CFE03A8AD
:1003F000FFF7CBFE00F0C0F90A4B186001F01AFAC3
:1004000004A901F012F80FB030BD00BFA801002010
:1004100001000020B1010020C5360A08B00100200B
:10042000D3360A08B40100207FB5644C2378013B21
:10043000042B00F2C080DFE803F095031946670043
:100440005F4B1B782BB15F4B1B78022B01D0FFF762
:10045000ABFF01F0EDF85C4D2B68C01A092840F3A2
:10046000AA8001F0E5F8032328602AE0544B1A78AB
:100470001D462AB1534B1B78032B01D0FFF794FF85
:10048000FFF72EFE0646D8B90123237000F074F959
:100490004E4B18602B78002B00F08D80FFF76AFE22
:1004A0004B4B4C4A1B784C4902A88DF80060FFF773
:1004B0000AFE03A8FFF769FE00F05EF9474B21E052
:1004C0000423237077E03E4B1B782BB13D4B1B7808
:1004D000042B01D0FFF768FF00F0A4FA68B101F027
:1004E0009DF80C2805D100F09DFA10B1002000F015
:1004F000B9FAFFF7D5FE0523E3E70123237000F0E7
:100500003BF9324B186056E02D4B1B782BB12D4B2D
:100510001B78052B01D0FFF747FF314B1B780BB938
:100520000223CEE700F028F92E4B1B68C01A4AF6CA
:10053000C87398423FD900F01FF9244D244B002284
:100540001B78286028498DF8002002A8274AFFF769
:10055000BAFD03A8FFF719FE0123237000F00CF980
:10056000286028E0164B1B782BB1164B1B78012B0B
:1005700001D0FFF719FF00F0FFF8144B1B6803F5DB
:10058000922303F57873984215D900F04BFA60B1C5
:100590000F4B00221B7802A88DF800200E49144A48
:1005A000FFF791FD03A8FFF7F0FD4FF4FA6000F0AC
:1005B000F9FA00F0ADFF04B070BD00BFA801002043
:1005C00000000020B1010020AC010020A4010020A7
:1005D000B0010020E4360A0897360A08B40100206A
:1005E000D1000020B8010020FE360A0832380A087F
:1005F00017370A08104B70B501261E7000F0DCF8A2
:100600004FF6FF730D4C0025022063812560A58005
:10061000A571258100F0B2F9094A0A49204601F086
:100620001DFB2946304600F0B9F93146BDE870405F
:10063000042000F089B800BFB0010020980100201C
:1006400090010020B7000A08C0E90E23024B0022E7
:10065000C162C0E91C2370470000A04000000000F8
:100660002DE9F04704468A46002555452FD0A08D38
:1006700001F084FAE06401F0D1FED4E91C6732464F
:100680003B468046894601F07BFD0022244B01F069
:100690002BFF32463B4601F075FD02460B464046B5
:1006A000C4E91C23494601F06BFD02460B46C4E930
:1006B000182301F019FF02460B46D4E92601C4E9CC
:1006C000242301F05FFD0135C4E92601CDE712A323
:1006D000D3E90023D4E90E0101F006FF06462846BF
:1006E0000F4601F08BFE02460B46D4E9260102F0CC
:1006F00025F801F01FFC02460B463046394601F052
:10070000F3FE00220023C4E90801C4E92623BDE862
:10071000F08700BFAFF300806666666666664A3F94
:100720000000503F00F048B808B5024B1B685B6CF6
:10073000019308BDD001060808B5024B1B689B6CED
:10074000019308BDD001060808B5024B1B685B6E1B
:10075000019308BDB801060808B5024B1B689B6EE3
:10076000019308BDB801060808B5024B1B685B6819
:10077000019308BD9C01060808B5024B1B685B6924
:10078000019308BD9C01060808B5024B1B68DB6994
:10079000019308BD9C01060808B5024B1B689B6DC0
:1007A000019308BD9C01060808B5024B1B68DB6D70
:1007B000019308BD9C01060808B5024B1B681B6825
:1007C000019308BDB001060808B5024B1B685B68C1
:1007D000019308BDB001060808B5024B1B681B6BEE
:1007E000019308BDB001060808B5024B1B681B6EDB
:1007F000019308BDAC01060808B5024B1B685B6E8F
:10080000019308BDAC01060808B5024B1B689B6E3E
:10081000019308BDAC01060808B5024B1B68DB6EEE
:10082000019308BDAC01060808B5024B1B681B6F9D
:10083000019308BDAC01060808B5024B1B685B6F4D
:10084000019308BDAC01060808B5034B1B68D3F83B
:100850008030019308BD0000AC01060808B5024BCA
:100860001B68DB69019308BDB401060808B5024B9B
:100870001B681B6A019308BDB401060808B5024B4A
:100880001B689B69019308BDC401060808B5024BAB
:100890001B685B6A019308BDC401060808B5024BDA
:1008A0001B689B6A019308BDC401060808B5024B8A
:1008B0001B68DB6A019308BDC401060808B5024B3A
:1008C0001B681B6B019308BDC401060808B5024BE9
:1008D0001B685B6B019308BDC401060808B5024B99
:1008E0001B689B6B019308BDC401060808B5024B49
:1008F0001B681B6C019308BDC401060808B5024BB8
:100900001B681B68019308BDD801060808B5024B97
:100910001B681B69019308BDD801060808B5024B86
:100920001B685B69019308BDD801060808B5024B36
:100930001B689B69019308BDD801060808B5024BE6
:100940001B68DB69019308BDD801060808B5024B96
:100950001B681B6A019308BDD801060808B5024B45
:100960001B689B6C019308BDC001060808B5024BCB
:100970001B681B68019308BDA401060808B5024B5B
:100980001B685B68019308BDA401060808B5024B0B
:100990001B685B69019308BDA401060808B5024BFA
:1009A0001B68DB6A019308BDA401060808B5024B69
:1009B0001B68DB6C019308BDA401060808B5024B57
:1009C0001B685B6D019308BDA401060808B5024BC6
:1009D0001B689B6D019308BDA401060808B5034B75
:1009E0001B68D3F89030019308BD0000A4010608ED
:1009F00008B5034B1B68D3F89C30019308BD000079
:100A0000A401060808B5024B1B689B68019308BD4A
:100A1000CC01060808B5024B1B68DB68019308BDD2
:100A2000CC01060808B5024B1B685B69019308BD41
:100A3000CC01060808B5024B1B68DB69019308BDB1
:100A4000CC01060808B5024B1B681B6A019308BD60
:100A5000CC01060808B5024B1B685B6A019308BD10
:100A6000CC01060808B5024B1B68DB6A019308BD80
:100A7000CC01060808B5024B1B681B6B019308BD2F
:100A8000CC01060808B5024B1B68DB6B019308BD5F
:100A9000CC01060808B5024B1B685B68019308BDD2
:100AA000C801060808B5024B1B689B68019308BD86
:100AB000C801060808B5024B1B68DB68019308BD36
:100AC000C801060808B5024B1B681B69019308BDE5
:100AD000C801060808B5024B1B685B69019308BD95
:100AE000C801060808B5024B1B689B69019308BD45
:100AF000C801060808B5024B1B68DB69019308BDF5
:100B0000C801060808B5024B1B681B6A019308BDA3
:100B1000C801060808B5024B1B681B6B019308BD92
:100B2000C801060808B5024B1B685B6B019308BD42
:100B3000C801060808B5024B1B681B68019308BD75
:100B4000A001060808B5024B1B685B68019308BD4D
:100B5000A001060808B5024B1B689B69019308BDFC
:100B6000A001060808B5024B1B68DB69019308BDAC
:100B7000A001060808B5024B1B68DB6A019308BD9B
:100B8000A001060808B5024B1B681B6B019308BD4A
:100B9000A001060808B5024B1B68DB6B019308BD7A
:100BA000A00106080021FFF7F1BE10B583680446D6
:100BB0000BB901F074F8C3689847A3681BB103220E
:100BC0002146204698472046BDE81040102101F0FC
:100BD0004AB870470020704710B50446102101F054
:100BE00042F8204610BD08B508B1FFF7F5FF08BD73
:100BF00010B58368044613B1032201469847204686
:100C000010BD002202604FF69C72828010B5B1F9CF
:100C1000044084808A8002680C6804600A6010BD09
:100C200010B504460068FFF78DFF204610BD38B5AB
:100C3000C468F4B12378022B03D104F10C00FFF750
:100C4000EFFF656835B12846FFF7D2FF102128462F
:100C500001F009F8A56835B12846FFF7C9FF102152
:100C6000284601F000F82046BDE83840142100F085
:100C7000FABF38BD13B5044691E8050000234B6068
:100C80000B602060626001A801930093FFF77DFA7A
:100C9000204602B010BD0B68036013B15A680132E0
:100CA0005A607047F7B50C4606460F4654F8043BA9
:100CB00002AD45F8083D214601A8FFF7ECFF2946A3
:100CC0003046FFF7D7FF01A8FFF75FFA2046FFF78E
:100CD0005CFA3846082100F0C6FF304603B0F0BD8C
:100CE00013B50B46044603C88DE8030093E80300E0
:100CF00084E803009DE8030083E8030002B010BD10
:100D000038B500230446036010200D46FFF7C7F9ED
:100D100028B1012343608360024BC56003602060FB
:100D2000204638BD38370A08826810B50AB900F085
:100D3000B6FFC368BDE81040184708B5006800F169
:100D40001001FFF7F1FF08BD826810B50AB900F085
:100D5000A6FFC368BDE81040184708B5006800F159
:100D60001001FFF7F1FF08BD38B5002383608B68E1
:100D700004460D462BB102229847EB68E360AB684E
:100D8000A360204638BD0000F0B589B0046868460D
:100D9000FFF737FF4FF0020200238DF80830D4E848
:100DA0004F3F002B03D1C4E8412F0029F7D102D0D7
:100DB0008DF8083063E014F10C0503D0694628462D
:100DC000FFF71FFFBFF35F8F01236370BFF35F8FD8
:100DD00004F10803002053E8006F43E80002002AF2
:100DE000F9D1BFF35F8F002E49D0FFF7DFFD20B1AF
:100DF00029463046FFF798FF3AE0314602A8FFF750
:100E0000B3FFE068B4F9105008B101F075FF069027
:100E10001020ADF81C50FFF742F90546E8B1002755
:100E200087601820FFF73BF9044688B101468760C8
:100E300002A8FFF755FF049BA268A360059B0492DC
:100E4000E26806A9E36004F110000592FFF7D9FEFD
:100E50000D4B2C60EB600D4BAB6006A8FFF7E0FE7E
:100E600002A8FFF7C5FE002229460948FFF7A6FDA4
:100E70003046FFF7BDFE1021304600F0F4FE684614
:100E8000FFF7CEFE09B0F0BD3B0D0A08B10F0A080E
:100E9000AB0B0A082DE9F04F8BB006460F46904683
:100EA00099469DF850A0FFF7BDFD07AD834630BBC6
:100EB0004FF62E73059005A92846ADF81830FFF7B8
:100EC000A0FE1420FFF7EBF8044658B1022303708C
:100ED00001234370C0F804B0C0F808B029460C30B4
:100EE000FFF78FFE3046214640F8044BFFF708FF1E
:100EF0002846FFF795FE05A8FFF792FE52E0002472
:100F00000C2314206C60AC600793FFF7C8F801460F
:100F100018B1047044704460846004A80391FFF722
:100F2000EFFE224B08200893FFF7B9F8044628B1DA
:100F3000039B04A940F8043BFFF7ADFE00955FFA60
:100F40008AF34A46414638460994FFF77BFD20B9AB
:100F5000039B5B7803F0FF0283B1039B04A906A8FF
:100F60000593FFF798FE05A93046FFF783FE06A814
:100F7000FFF70BF904A8FFF708F913E04FF69C738D
:100F800005A903A80592ADF81830FFF7FDFE05A8E6
:100F9000FFF746FE05A80999FFF784FE06A8FFF7AC
:100FA000F4F8DAE730460BB0BDE8F08F21110A08FB
:100FB000022AF8B5044606D0032A17D0012A22D106
:100FC0000B6803601FE018200E68FFF768F80546FD
:100FD00050B13146FFF7C8FE3069B6F9147008B158
:100FE00001F08AFE2861AF8225600CE0046854B1EC
:100FF00004F11000FFF714FE2046FFF7F9FD182159
:10100000204600F030FE0020F8BD38B50023836094
:101010008B6804460D462BB102229847EB68E360CB
:10102000AB68A360204638BD022A70B5044606D0DE
:10103000032A11D0012A18D10B68036015E014208F
:101040000E68FFF72CF8054620B13146FFF7DDFFAB
:10105000337C2B74256008E0046834B12046FFF728
:10106000C7FD1421204600F0FEFD002070BD0000E9
:10107000F0B50C46BFF35F8F87B0002350E8006FD8
:1010800040E80032002AF9D1BFF35F8F002E3FD035
:101090001846FFF78BFC074620B121463046FFF784
:1010A00053FE2EE0314601A8FFF7AFFF2378102052
:1010B0008DF81430FEF7F3FF0546D0B18760142099
:1010C000FEF7EDFF044678B18760014601A8FFF7FF
:1010D00007FE039BA268A360049B0392E268E3609F
:1010E0009DF81430049223740A4B2C60EB600A4B79
:1010F000AB6001A8FFF77CFD002229460748FFF7F7
:101100005DFC3046FFF774FD1021304600F0ABFD6A
:1011100007B0F0BD5B0D0A0829100A08AB0B0A08DE
:1011200030B5044685B00D4668461146FFF7BAFD56
:101130007CB124B228460DB101F0DEFD029002A977
:101140006846ADF80C40FFF71FFE02A8FFF768FDE8
:101150001DE04FF0010200988DF80840D0E84F3FA5
:10116000A34203D1C0E8412F0029F7D102D08DF866
:1011700008300CE010F10C014FF0010318BF0373AD
:10118000BFF35F8F043000F8033CFFF771FF01A845
:10119000FEF7FBFF05B030BD7047F8B506461546B3
:1011A0000C468F18BC4206D0336814F8011B9B68AC
:1011B00030469847F6E72846F8BD0022007CFFF746
:1011C00013BB0021007CFFF717BB0021007CFFF759
:1011D0001BBB0021007CFFF71FBB0021007CFFF739
:1011E00023BB10B50446142100F03DFD204610BD80
:1011F00010B50446002363604FF47A73A360044B78
:101200002174084623601146FFF71EFB204610BDDF
:1012100054370A080021007CFFF70EBB704710B559
:101220000446182100F01FFD204610BDF8B50F46FA
:1012300000F10806051D002416F8011D0A22384693
:1012400000F0FDF8AE42044407D0002CF4D02E216B
:10125000384600F0DBF80444EEE72046F8BD000015
:1012600010B50446044B112240F8043B002101F064
:1012700000FD204610BD00BF7C370A080346074A20
:1012800010B543F8042B01F1100251F8044B9142C0
:1012900043F8044BF9D10A781A7010BD7C370A085C
:1012A000024A416002600422027570477C370A08D6
:1012B00010B59DF8084044EA032343EA024242EA9B
:1012C000016104234160037510BD000037B5044D72
:1012D00005609DF818500095FFF7EAFF03B030BD98
:1012E0007C370A08014A024B1A607047FE370A0829
:1012F0007802002000231A464068FFF7CBBB00228B
:1013000002214068FFF7D6BB002211464068FFF774
:10131000C9BB002211464068FFF7D4BB00231A4620
:1013200019464068FFF7D6BB00231A4619464068A5
:10133000FFF7D8BB002281F001014068FFF7DABB5C
:1013400000224068FFF7E6BB002211464068FFF725
:10135000E9BB002211464068FFF7D4BB70B51646C2
:101360008EB0044608A8FFF77BFF1122002103A8D6
:1013700001F07FFC304601F0DAFC00250A4B0095B5
:1013800081B25B6803AA3046FFF7E8FA20B129462C
:101390002046FFF785FF03E003A92046FFF76EFF15
:1013A00020460EB070BD00BF30070020024B034A3C
:1013B0001A6000225A6070477C02002074380A08C4
:1013C000F8B506460D468F180024BD420CD0336890
:1013D00015F8011B9B6830469847002801DB044440
:1013E000F3E7002C08BF04462046F8BD70B505465B
:1013F0000C46084649B101F09AFC2B68024621468A
:101400002846BDE87040DB68184770BD03689B68DC
:10141000184738B50D210546FFF7F8FF0A210446A5
:101420002846FFF7F3FF204438BD38B50546FFF7DF
:10143000DDFF04462846FFF7ECFF204438BD012AB3
:1014400098BF0A2230B50B468BB000218DF82410CE
:101450000DF12304B3FBF2F505FB1233DBB2092BCC
:1014600094BF30333733DBB2214604F801392B46C1
:10147000002DEFD1FFF7BAFF0BB030BD10B5044619
:10148000FFF7B6FB204610BD034800238360034AE4
:10149000034900F0E3BB00BF84020020900100205C
:1014A0007D140A0870B504460E46002540F8085F12
:1014B000FFF73AF930462670FFF7D0F9656020460D
:1014C00070BD0078FFF7D2B910B504460068FFF789
:1014D00039FB204610BD70B50E469AB191B18568B2
:1014E0009D4202D800230B7070BD541EED1AAC4211
:1014F00028BF2C46016822461944304601F034FCCE
:101500000023335570BD014600228C20FFF724B91B
:101510000020FFF7F8BF00004FF6FF7310B5084C2E
:1015200000202060A080A07120816381FFF726FA4F
:101530002046BDE81040034A034900F08FBB00BFBE
:101540009402002090010020B7000A08F0B5144B67
:10155000144F1E68144B064418683B6806449E42AC
:101560008BB01BD00AA840F8286D01F07FFA044622
:10157000436901AD03F26C7343610FCC0FC50FCC0F
:101580000FC5D4F800E0094CC5F800E001AD0FCD5F
:101590000FC40FCD0FC43E60C4F800E00BB0F0BD27
:1015A000D0020020CC020020C8020020A0020020AF
:1015B00008B50020FFF75EFA28B1FFF733FA80F094
:1015C0000100C0B208BD012008BD10B50020FFF722
:1015D000E3F8044668B9FFF7C9F901280BD12046A2
:1015E000FFF7F4F938B9FFF7E3FF30B9FFF70AFA6C
:1015F000F9E7012010BD002010BDFFF7D9FF002042
:10160000FFF7CAF8003018BF012010BD08B5FFF77A
:10161000DCFFBDE80840FFF7B7B8000008B5FFF7EA
:10162000F5FFFFF793FF014B986808BDA00200206B
:1016300008B5FFF7EBFFFFF789FF014B186808BDFE
:10164000A0020020024B1A68024B1A60704700BFCC
:10165000D4000020C402002070474174704708B5D0
:10166000007CFFF743F920EAE07008BD08B5007C74
:10167000FFF714F920EAE07008BD08B5007CFFF719
:101680001DF930EA200028BF4FF0FF3008BD08B533
:10169000007CFFF70BF930EA200028BF4FF0FF3045
:1016A00008BD007CFFF712B910B50446142100F004
:1016B000DAFA204610BD70B5457C04460E4625B9C1
:1016C000007CFFF713F9002805DD3146207CBDE8DA
:1016D0007040FFF7DBB8284670BD000010B5044627
:1016E00008461146002262604FF47A72A260054AF1
:1016F00020742260012262741A46FFF7BFF8204668
:1017000010BD00BFD0380A08007CFFF7E7B8000022
:1017100038B50C4D296811F0010411D12846FEF7A7
:10172000C2FC68B1084A2146084B0948FFF7D6FFBA
:101730002846FEF7BDFC074A0749054800F08EFA27
:10174000034838BD6C03002070030020E80200202D
:10175000D40200209001002059160A0841747047F5
:10176000704708B50021007CFFF7E0F830EA200060
:1017700028BF4FF0FF3008BD08B50121007CFFF7FE
:10178000D5F830EA200028BF4FF0FF3008BD08B57B
:10179000007CFFF7C3F820EAE07008BD08B5007CC4
:1017A000FFF7B4F820EAE07008BD007CFFF7CEB880
:1017B00010B50446142100F056FA204610BD38B585
:1017C0000446007C0D46FFF7A9F8002801DC607C88
:1017D00028B12946207CFFF7B1F820EAE07038BD37
:1017E00010B50446002363604FF47A73A360054B81
:1017F000084623600123217463741146FFF77EF8C5
:10180000204610BD00390A0810B5044614220021F4
:1018100001F02FFA054B20466360054BE36040F270
:10182000011323818123238210BD00BF790400208E
:10183000F803002030B50E4D87B001A8FFF7E4FF94
:10184000296811F0010410D12846FEF72CFC60B184
:1018500001AA21460748FFF7C3FF2846FEF728FCE8
:10186000054A0649034800F0F9F9024807B030BDBF
:10187000F40300207C0500209001002061170A0875
:1018800010B504461422002101F0F3F9054B20465F
:101890006360054BE36040F20113238181232382BF
:1018A00010BD00BF2C0600209405002010B50E4C82
:1018B00086B001A8FFF7E4FF2368DB0710D42046B9
:1018C000FEF7F1FB60B101AA01210848FFF788FF8C
:1018D0002046FEF7EDFB064A0649044800F0BEF933
:1018E000024806B010BD00BF900500201806002079
:1018F0009001002061170A08002211464068FFF796
:10190000E1B8F0B5164689B011220F460446002111
:1019100003A801F0AEF9304601F009FA0025009560
:1019200081B27B6803AA3046FFF718F820B1294638
:101930002046FFF7B5FC03E003A92046FFF79EFC15
:10194000204609B0F0BD002211464068FFF7DAB822
:10195000002211464068FFF7E5B800224068FFF713
:10196000D9B8002281F001014068FFF7C3B8002315
:101970001A4619464068FFF7B5B800231A461946BB
:101980004068FFF7A7B8002211464068FFF78AB801
:10199000002202214068FFF78DB800231A464068F4
:1019A000FFF778B8024B04225A60024A1A60704767
:1019B0003007002030390A0808B5144B33B1FFF75F
:1019C00039FF03681B699847002816DC104B33B1B8
:1019D000FFF79EFE03681B699847002810DC0D4B3B
:1019E0000BB1AFF300800C4B7BB1FFF75FFF0368D7
:1019F0001B699847002806DC08BDAFF30080E5E7C7
:101A0000AFF30080EBE7AFF3008008BD00000000FB
:101A100000000000000000000000000008B5FFF713
:101A2000CBFFFEF7A9FE014B186008BD5007002050
:101A30000248034A0349121A01F010B9004002405B
:101A400004400240A03B0A0807B5002300931A4651
:101A50006FF07701FEF7CCFF03B05DF804FB0000E8
:101A600007B543880A2B08D0502B09D1094B1B68B6
:101A70003BB103B05DF804EB1847FFF7E5FF06E064
:101A8000002300931A466FF07701FEF7B1FF03B011
:101A90005DF804FB3807002038B5104C104D236862
:101AA000AB42104B0CBF012200221A7002D0FFF78C
:101AB000BFFF2560FEF758FE044601F0E3F80A4B2D
:101AC00013B12046AFF3008000210748FEF7DAFF8C
:101AD000BDE8384000210548FEF780BF00400240C5
:101AE0001E1C279A3C07002000000000611A0A080B
:101AF00010B50446806808B1FEF71EFE204610BDF2
:101B000070B51A4E0446316811F001050FD1304608
:101B1000FEF7C9FA58B129461548FFF7C3FC30460D
:101B2000FEF7C6FA134A1449114800F097F8104816
:101B3000FFF7C7FC28B1A4F10D03022B01D8002048
:101B400070BD00F04DF8FFF765FB08B1012CF6D928
:101B5000FFF7DEFDFFF7D8FD18B1A4F11203012B4A
:101B6000EDD9172C8CBF0020012070BD400700204C
:101B70004407002090010020F11A0A0810B504461D
:101B800009289CBF0A34A4B22046FFF7B9FF50B120
:101B900003212046FEF718FE032804D12046BDE8A5
:101BA0001040FEF719BE002010BD000070B50446BD
:101BB00014252A46094E002101F05BF825802025D6
:101BC0003146A5602561284600F067F8314660601F
:101BD000284600F062F8E060204670BD5C390A08D3
:101BE00030B50E4D87B0296811F0010413D1284695
:101BF000FEF759FA78B101A8FFF7D8FF01AA2146EC
:101C00000748FFF7F5FA2846FEF752FA054A064953
:101C1000034800F023F8024807B030BD5407002005
:101C2000580700209001002099110A0813B5084CAC
:101C300000231A46194600932046FFF747FB20462B
:101C4000044A054902B0BDE8104000F007B800BFE3
:101C50006C070020900100201D120A080B46014667
:101C6000184600F0F5BEFEF71CBA0000024B1868DB
:101C7000BFF35F8F704700BF8407002010B50028B6
:101C800014BF044601242046FEF754FF20B9FFF795
:101C9000EDFF08B18047F6E710BDFFF7EFBF08B5CD
:101CA000FEF768FF244B1A68D0075CBF01221A6058
:101CB000224B1A68D1075CBF01221A60204B1A68B8
:101CC000D2075CBF01221A601E4B1A68D0075CBFA6
:101CD00001221A601C4B1A68D1075CBF01221A60EE
:101CE0001A4B1A68D2075CBF01221A60184B1A6897
:101CF000D0075CBF01221A60164B1A68D1075CBF7F
:101D000001221A60144B1A68D2075CBF01221A60C4
:101D1000124B1A68D0075CBF01221A60104B1A6878
:101D2000D1075CBF01221A600E4B1A68D2075CBF54
:101D300001221A60704700BFB4070020B0070020DE
:101D4000AC070020A8070020A4070020A00700205F
:101D50009C0700209807002094070020900700208F
:101D60008C07002088070020184B1A68D1075CBF39
:101D700001221A60164B1A68D2075CBF01221A6052
:101D8000144B1A68D0075CBF01221A60124B1A6804
:101D9000D1075CBF01221A60104B1A68D2075CBFE2
:101DA00001221A600E4B1A68D0075CBF01221A602C
:101DB0000C4B1A68D1075CBF01221A600A4B1A68E3
:101DC000D2075CBF01221A60704700BFD407002011
:101DD000D0070020CC070020C8070020C40700203F
:101DE000C0070020BC070020B8070020184B1A6865
:101DF000D1075CBF01221A60164B1A68D2075CBF7C
:101E000001221A60144B1A68D0075CBF01221A60C5
:101E1000124B1A68D1075CBF01221A60104B1A6876
:101E2000D2075CBF01221A600E4B1A68D0075CBF54
:101E300001221A600C4B1A68D1075CBF01221A609C
:101E40000A4B1A68D2075CBF01221A60704700BFB4
:101E5000F4070020F0070020EC070020E80700202E
:101E6000E4070020E0070020DC070020D80700205E
:101E7000244B1A68D0075CBF01221A60224B1A68F3
:101E8000D1075CBF01221A60204B1A68D2075CBFE1
:101E900001221A601E4B1A68D0075CBF01221A602B
:101EA0001C4B1A68D1075CBF01221A601A4B1A68D2
:101EB000D2075CBF01221A60184B1A68D0075CBFBA
:101EC00001221A60164B1A68D1075CBF01221A6002
:101ED000144B1A68D2075CBF01221A60124B1A68B1
:101EE000D0075CBF01221A60104B1A68D1075CBF93
:101EF00001221A600E4B1A68D2075CBF01221A60D9
:101F0000704700BF24080020200800201C08002083
:101F10001808002014080020100800200C080020D9
:101F2000080800200408002000080020FC0700200A
:101F3000F80700202DE9F04F8BB004460D4600F065
:101F400055F8284B064693F900A00F46BAF1FF3F1B
:101F500012D022462B462046294600F05FFD8346DC
:101F600050B94FF000084FF000092046294642467C
:101F70004B4600F02BFD20B9304639460BB0BDE88A
:101F8000F08F194A0123CDF820B0CDE90445CDE901
:101F9000024501920093BAF1000F15D042464B461C
:101FA0004046494600F0CAFBBAF1020FCDE90601EE
:101FB0000CD1FEF7EFFD21230360089B63B9DDE937
:101FC00006010BB0BDE8F08FCDE90689684600F048
:101FD000D1F80028F1D1ECE7FEF7DCFD089B0360A7
:101FE000EDE700BFD800002060390A082DE9F04174
:101FF0005F4E0C46B6460E407645054600F098808A
:1020000000290B46024674DD5FEA215E7FD0AEF206
:10201000FF3EC3F313031EF0010F43F4801363D19B
:1020200000273E4603EBD2710B444FEA6E0E52007E
:1020300016204FF4001174189C424FEAD2754FEAF3
:10204000420202DC1B1B66180F44013805EB4303F8
:102050004FEA5101EFD1844620244FF0004109E0BE
:1020600020D003EBD275013C4FEA51012B444FEADB
:10207000420220D09E4201EB0C05F1DA002D05EB67
:10208000010C09DBB0469542A3EB060300D9013BE6
:102090004646521B0844E4E7BCF1000FF2DB06F1B0
:1020A0000108F0E7954217D8002D05EB010C49DB3C
:1020B00098460023ECE7134310D140087B1003F14E
:1020C0007F5303F50013FA0703EB0E57394648BF59
:1020D00040F00040BDE8F0813346C2E7411C35D0F6
:1020E00000F001031844E8E75B0003EBD2735200F1
:1020F00096E721F000460643ECD079BB8E46D30A22
:10210000AEF1150E5205002BF9D0DD0221D40021CD
:1021100000E001465B00DC0201F10100F9D5C0F1ED
:10212000200422FA04F42343C1EB0E0E82406EE732
:1021300002460B4600F0D8F92A46234600F022F862
:10214000BDE8F081BCF1000FA9DAB1E70137204604
:10215000B4E720244FF0FF310020E2E702460B46AF
:1021600000F00EF802460B4600F0E8FAB2E700BFB6
:102170000000F07F0020704781F0004102E000BFC6
:1021800083F0004330B54FEA41044FEA430594EA37
:10219000050F08BF90EA020F1FBF54EA000C55EA72
:1021A000020C7FEA645C7FEA655C00F0E2804FEA43
:1021B0005454D4EB5555B8BF6D420CDD2C4480EA25
:1021C000020281EA030382EA000083EA010180EA55
:1021D000020281EA0303362D88BF30BD11F0004FA3
:1021E0004FEA01314FF4801C4CEA113102D04042D9
:1021F00061EB410113F0004F4FEA03334CEA133314
:1022000002D0524263EB430394EA050F00F0A7802B
:10221000A4F10104D5F1200E0DDB02FA0EFC22FA26
:1022200005F2801841F1000103FA0EF2801843FA1A
:1022300005F359410EE0A5F120050EF1200E012A0B
:1022400003FA0EFC28BF4CF0020C43FA05F3C01849
:1022500051EBE37101F0004507D54FF0000EDCF1C2
:10226000000C7EEB00006EEB0101B1F5801F1BD36B
:10227000B1F5001F0CD349085FEA30004FEA3C0C6F
:1022800004F101044FEA445212F5800F80F09A8065
:10229000BCF1004F08BF5FEA500C50F1000041EB69
:1022A000045141EA050130BD5FEA4C0C404141EB6D
:1022B000010111F4801FA4F10104E9D191F0000F94
:1022C00004BF01460020B1FA81F308BF2033A3F117
:1022D0000B03B3F120020CDA0C3208DD02F1140C0E
:1022E000C2F10C0201FA0CF021FA02F10CE002F149
:1022F0001402D8BFC2F1200C01FA02F120FA0CFC42
:10230000DCBF41EA0C019040E41AA2BF01EB04518A
:10231000294330BD6FEA04041F3C1CDA0C340EDC88
:1023200004F11404C4F1200220FA04F001FA02F3CB
:1023300040EA030021FA04F345EA030130BDC4F189
:102340000C04C4F1200220FA02F001FA04F340EA7E
:102350000300294630BD21FA04F0294630BD94F02F
:10236000000F83F4801306BF81F480110134013D16
:102370004EE77FEA645C18BF7FEA655C29D094EA87
:10238000050F08BF90EA020F05D054EA000C04BF05
:102390001946104630BD91EA030F1EBF00210020F0
:1023A00030BD5FEA545C05D14000494128BF41F08F
:1023B000004130BD14F580043CBF01F5801130BDF3
:1023C00001F0004545F0FE4141F470014FF000007E
:1023D00030BD7FEA645C1ABF194610467FEA655C2F
:1023E0001CBF0B46024650EA013406BF52EA0335D1
:1023F00091EA030F41F4002130BD00BF90F0000FBF
:1024000004BF0021704730B54FF4806404F13204FA
:102410004FF000054FF0000150E700BF90F0000FB3
:1024200004BF0021704730B54FF4806404F13204DA
:1024300010F0004548BF40424FF000013EE700BFAA
:1024400042004FEAE2014FEA31014FEA02701FBF3A
:1024500012F07F4393F07F4F81F06051704792F00C
:10246000000F14BF93F07F4F704730B54FF4607486
:1024700001F0004521F0004120E700BF50EA0102D1
:1024800008BF704730B54FF000050AE050EA01027E
:1024900008BF704730B511F0004502D5404261EBEE
:1024A00041014FF4806404F132045FEA915C3FF42F
:1024B000DCAE4FF003025FEADC0C18BF03325FEAC8
:1024C000DC0C18BF033202EBDC02C2F1200300FA7D
:1024D00003FC20FA02F001FA03FE40EA0E0021FAA2
:1024E00002F11444C1E600BF70B54FF0FF0C4CF48C
:1024F000E06C1CEA11541DBF1CEA135594EA0C0F42
:1025000095EA0C0F00F0DEF82C4481EA030621EA7C
:102510004C5123EA4C5350EA013518BF52EA0335B7
:1025200041F4801143F4801338D0A0FB02CE4FF069
:102530000005E1FB02E506F00042E0FB03E54FF099
:102540000006E1FB03569CF0000F18BF4EF0010E91
:10255000A4F1FF04B6F5007F64F5407404D25FEA8D
:102560004E0E6D4146EB060642EAC62141EA555140
:102570004FEAC52040EA5E504FEACE2EB4F1FD0C82
:1025800088BFBCF5E06F1ED8BEF1004F08BF5FEA00
:10259000500E50F1000041EB045170BD06F00046B2
:1025A00046EA010140EA020081EA0301B4EB5C045F
:1025B000C2BFD4EB0C0541EA045170BD41F4801157
:1025C0004FF0000E013C00F3AB8014F1360FDEBF7C
:1025D000002001F0004170BDC4F10004203C35DA58
:1025E0000C341BDC04F11404C4F1200500FA05F3DB
:1025F00020FA04F001FA05F240EA020001F000427C
:1026000021F0004110EBD37021FA04F642EB0601F1
:102610005EEA430E08BF20EAD37070BDC4F10C041B
:10262000C4F1200500FA04F320FA05F001FA04F2DF
:1026300040EA020001F0004110EBD37041F10001CB
:102640005EEA430E08BF20EAD37070BDC4F12005D6
:1026500000FA05F24EEA020E20FA04F301FA05F23E
:1026600043EA020321FA04F001F0004121FA04F2E6
:1026700020EA020000EBD3705EEA430E08BF20EAB6
:10268000D37070BD94F0000F0FD101F000464000F0
:1026900041EB010111F4801F08BF013CF7D041EA72
:1026A000060195F0000F18BF704703F00046520076
:1026B00043EB030313F4801F08BF013DF7D043EA47
:1026C0000603704794EA0C0F0CEA135518BF95EAFD
:1026D0000C0F0CD050EA410618BF52EA4306D1D184
:1026E00081EA030101F000414FF0000070BD50EAA3
:1026F000410606BF1046194652EA430619D094EA2D
:102700000C0F02D150EA013613D195EA0C0F05D116
:1027100052EA03361CBF104619460AD181EA03016A
:1027200001F0004141F0FE4141F470014FF0000022
:1027300070BD41F0FE4141F4780170BD70B54FF0BD
:10274000FF0C4CF4E06C1CEA11541DBF1CEA13553D
:1027500094EA0C0F95EA0C0F00F0A7F8A4EB05041F
:1027600081EA030E52EA03354FEA013100F0888016
:102770004FEA03334FF0805545EA131343EA1263DF
:102780004FEA022245EA111545EA10654FEA002694
:102790000EF000419D4208BF964244F1FD0404F54D
:1027A000407402D25B084FEA3202B61A65EB0305A9
:1027B0005B084FEA32024FF480104FF4002CB6EB66
:1027C000020E75EB030E22BFB61A754640EA0C00E6
:1027D0005B084FEA3202B6EB020E75EB030E22BF26
:1027E000B61A754640EA5C005B084FEA3202B6EB67
:1027F000020E75EB030E22BFB61A754640EA9C0026
:102800005B084FEA3202B6EB020E75EB030E22BFF5
:10281000B61A754640EADC0055EA060E18D04FEAB3
:10282000051545EA16754FEA06164FEAC30343EA53
:1028300052734FEAC2025FEA1C1CC0D111F4801F20
:102840000BD141EA00014FF000004FF0004CB6E719
:1028500011F4801F04BF01430020B4F1FD0C88BFB8
:10286000BCF5E06F3FF6AFAEB5EB030C04BFB6EBC3
:10287000020C5FEA500C50F1000041EB045170BDB6
:102880000EF0004E4EEA113114EB5C04C2BFD4EBE3
:102890000C0541EA045170BD41F480114FF0000E67
:1028A000013C90E645EA060E8DE60CEA135594EAE3
:1028B0000C0F08BF95EA0C0F3FF43BAF94EA0C0FE6
:1028C0000AD150EA01347FF434AF95EA0C0F7FF45B
:1028D00025AF104619462CE795EA0C0F06D152EAAF
:1028E00003353FF4FDAE1046194622E750EA410693
:1028F00018BF52EA43067FF4C5AE50EA41047FF4A4
:102900000DAF52EA43057FF4EBAE12E74FF0FF3C08
:1029100006E000BF4FF0010C02E000BF4FF0010CD9
:102920004DF804CD4FEA410C7FEA6C5C4FEA430C52
:1029300018BF7FEA6C5C1BD001B050EA410C0CBFA1
:1029400052EA430C91EA030F02BF90EA020F002003
:10295000704710F1000F91EA030F58BF994208BF6A
:1029600090422CBFD8176FEAE37040F00100704727
:102970004FEA410C7FEA6C5C02D150EA013C07D17E
:102980004FEA430C7FEA6C5CD6D152EA033CD3D0C9
:102990005DF8040B704700BF8446104662468C46C3
:1029A0001946634600E000BF01B5FFF7B7FF0028F6
:1029B00048BF10F1000F01BD4DF808EDFFF7F4FF1F
:1029C0000CBF012000205DF808FB00BF4DF808EDAA
:1029D000FFF7EAFF34BF012000205DF808FB00BFCD
:1029E0004DF808EDFFF7E0FF94BF012000205DF8EF
:1029F00008FB00BF4DF808EDFFF7CEFF94BF0120A4
:102A000000205DF808FB00BF4DF808EDFFF7C4FF9C
:102A100034BF012000205DF808FB00BF4FEA410CE5
:102A20007FEA6C5C02D150EA013C0AD14FEA430CC8
:102A30007FEA6C5C02D152EA033C02D14FF0000005
:102A400070474FF0010070470A22002100F026BABB
:102A500010B5054C13462CB10A4601460220AFF3CF
:102A6000008010BD204610BD0000000038B5074BA7
:102A700005461C68E36B1BB92420FEF75BF8E06396
:102A8000E16B2846BDE8384000F002B84001002064
:102A90002DE9F0410C46804600F006FD2146074630
:102AA000404600F005FD4669044606F26C76B30721
:102AB00005D1642296FBF2F302FB13634BB94FF48A
:102AC000C87596FBF5F305FB1365B5FA85F35B094D
:102AD00000E001235F4A302505FB032500F018FBC9
:102AE00000F018FB5C4B1B68F3B17B689E4205D17C
:102AF0003968D8F80030FA6941B90AE0304600F088
:102B00005FFA0028F4D14FF0FF330DE0934208DB69
:102B100001E0934207DABA6B9342ACBF0023012372
:102B200002E0002300E001232362236A3C20012B02
:102B30000CBFF96B396A4FF4616391FBF3F603FB49
:102B4000161393FBF0F200FB123061682368891AB8
:102B5000A2681B1A921B3B2B23606160A26003DDFD
:102B6000013161603C3B04E0002B03DA0139616014
:102B70003C33236063683B2B03DD0132A2603C3BA6
:102B800004E0002B03DA013AA2603C336360A368DF
:102B9000172B22DDE269183B0132E261A269A360D2
:102BA0000132062AC8BF0022A261E268236901320D
:102BB000E26055F823108A4246DD01330C2B08BF32
:102BC0006369A2EB0102E26005BF013300222361C9
:102BD000226104BF6361E26136E0002B34DAE2690E
:102BE0001833013AE261A269A360013A48BF0622A4
:102BF000A261E268013AE26032BB2369013B01D481
:102C000023611DE00B23236163695A1E12F0030F39
:102C1000626103F26B7305D1642193FBF1F201FB56
:102C200012324AB94FF4C87193FBF1F201FB12332F
:102C3000B3FA83F35B0900E0012303F5B673E361A4
:102C4000236955F82330E36000F063FA2046BDE8BD
:102C5000F08100BFD03A0A084408002010B5431E96
:102C60000A44914204D011F8014B03F8014FF8E7F0
:102C700010BD03460244934202D003F8011BFAE759
:102C80007047000038B5124B05461C68A36BD3B9DA
:102C90001820FDF74FFF43F20E33A06303804AF67E
:102CA000CD33438041F2342383804EF26D63C38081
:102CB0004DF6EC630381052343810B2383810122BD
:102CC0000023C0E90423A36B00221D615A6138BDB3
:102CD0004001002010F8012B11F8013B012A28BF08
:102CE0009A42F7D0D01A7047034611F8012B03F827
:102CF000012B002AF9D17047024B0146186800F0F9
:102D000003B800BF4001002070B5064608460C46D7
:102D100000F00DF8451C29463046FDF733FF064606
:102D200018B12A462146FFF799FF304670BD034689
:102D300013F8012B002AFBD1181A0138704730B55F
:102D400082B1451E013915F8013F11F8014FA34228
:102D500006D1EC431444E04201D0002BF3D11C46D1
:102D6000181B30BD104630BD034610B542B111F8F6
:102D7000014B013A03F8014B002CF7D11A4400E053
:102D800010BD934202D003F8014BFAE710BD0000DA
:102D90002DE9F0470F4680463F48D0F800903D4669
:102DA00015F8014B09EB0400407800F0080000F032
:102DB000FF0608B12F46F2E72D2C03D1BD1C7C780D
:102DC000012603E02B2C04BF7C78BD1C13B1102B13
:102DD0000AD15BE0302C57D1287800F0DF0058286A
:102DE0004DD16C7810230235002E14BF4FF0004CEB
:102DF0006FF0004CBCFBF3FA0027384603FB1ACCFB
:102E000009EB040E9EF801E01EF0040F01D0303CE7
:102E10000BE01EF0030E1BD0BEF1010F0CBF4FF0F4
:102E2000370E4FF0570ECEEB0404A34210DDB7F17E
:102E3000FF3F0AD0504506D801D1644503DC03FBAF
:102E40000040012701E04FF0FF3715F8014BD7E7AD
:102E50007B1C0CD1002E4FF0220314BF4FF000401A
:102E60006FF00040C8F800302AB9BDE8F08706B11D
:102E7000404272B107B1691E1160BDE8F08730248D
:102E8000002BB1D10823AFE70A23ADE7302CA3D044
:102E9000AAE7BDE8F08700BFDC00002013460A4621
:102EA000014602480068FFF773BF00BF40010020E1
:102EB0002DE9F0470E4680463B48D0F80090354655
:102EC00015F8014B09EB0400407800F0080000F011
:102ED000FF0708B12E46F2E72D2C03D1B51C7478FC
:102EE000012703E02B2C04BF7478B51C13B1102B01
:102EF0000AD153E0302C4FD1287800F0DF00582859
:102F000045D16C78102302354FF0FF3CBCFBF3FC3D
:102F100003FB0CFA00266FEA0A0A304609EB040E9E
:102F20009EF801E01EF0040F01D0303C0BE01EF0D3
:102F3000030E1AD0BEF1010F0CBF4FF0370E4FF049
:102F4000570ECEEB0404A3420FDD002E08DB6045D4
:102F500006D801D1544503DC03FB0040012601E003
:102F60004FF0FF3615F8014BD8E7002E07DA222381
:102F7000C8F800304FF0FF302AB9BDE8F08707B13C
:102F8000404272B106B1691E1160BDE8F08730247D
:102F9000002BB9D10823B7E70A23B5E7302CABD013
:102FA000B2E7BDE8F08700BFDC00002013460A4608
:102FB000014602480068FFF77BBF00BF40010020C8
:102FC0002DE9F74F044600F06FFA40F2B1739C42CE
:102FD00040F3968040F26D156FF4F663E318A4F2A7
:102FE000B2729B1005FB0235A4F26D726FF06303A1
:102FF00092FBF3F36FF4C8622B44A5184FF4C87228
:1030000094FBF2F795FBF2F502FB17471D4464238E
:1030100094FBF3F6B7FA87FE014603FB164600F170
:103020003803019304F0030344604FEA5E1E0093EB
:103030004FF0070C0B7A4A2B0ED14B69009AEC1813
:1030400002B906B927B93B2BD4BF0023012300E006
:1030500000232344013B3FE0442B02D14B692B4426
:103060003AE0009B2BB9002E0CBFF0464FF0010850
:1030700000E0F046A946244B302202FB0838CC6819
:10308000A8F1040A0123A34204DA5AF804BF013369
:10309000D944F8E709F1040393FBFCFBCBEBCB0A23
:1030A000CAEB030A4B69012CB8BF0124B3EB0A0A2F
:1030B0000B6904F1804403F1FF3304F1FF3448BF8E
:1030C0000AF1070AC3EBC30358F824405344A34250
:1030D00001DB073BFBE74B448C690C4A02FB0343D3
:1030E0000C6A234441F81C3F019B9942A2D1C36959
:1030F000826B9342ACBF002301230360012000E0F8
:10310000002003B0BDE8F08FD03A0A0880510100DA
:1031100070477047014B186800F002B8400100206A
:103120002DE9F04F8DB0074600F0BEF9B0490446D6
:10313000384600F0B1F9AF4E054660B9AE4BAF4A24
:103140001860AF4B1860AF4B30681A605A60FDF7DB
:10315000F9FC356048E1316879B93068FDF7F2FC77
:103160002846FFF7E4FD411C3846FDF70BFD3060B3
:1031700048B12946FFF7B8FD05E0FFF7ABFD002891
:1031800000F03281E9E72B780AAE3A2B08BF01350F
:1031900033469D4A9D492846FDF7DCFC002840F354
:1031A00023810A9BEF18EB5C2D2B03D101374FF0E5
:1031B000FF3503E02B2B08BF013701250DF1200A55
:1031C0000DF11E0B4FF000080396CDF808A00196F4
:1031D000CDF800B0334607AA8D493846ADF81E80B9
:1031E000ADF82080FDF7B6FC404540F3FD80BDF80A
:1031F0001E20BDF820303C2101FB0233BDF81C200D
:103200004FF4616101FB02335D437F4B25627D4DCD
:10321000DFF808922B600A9B4A461F447B493346DD
:103220003846FDF797FC404508DC2B68226A6B6046
:10323000714B1A60724BC3F80080D5E00A9BC5F849
:103240000490FD18FB5C2D2B03D101354FF0FF37A7
:1032500003E02B2B08BF013501270023ADF81C30FC
:10326000ADF81E30ADF820300A930396CDF808A0D3
:103270000196CDF800B0334607AA65492846FDF708
:1032800069FC002804DC236AA3F56163E3630EE0B4
:10329000BDF81E20BDF820303C2101FB0233BDF8F3
:1032A0001C204FF4616101FB02335F43E763274653
:1032B0000A9B4FF000091D442B782C2B08BF0135C9
:1032C00095F80080B8F14D0F26D10DF12603029339
:1032D00009AB00930396019633460DF122024D4946
:1032E0002846FDF737FC03287ED1BDF822104B1E7F
:1032F0000B2B79D8BDF82420531E042B74D8BDF8AD
:103300002630062B70D887F80880F9603A617B6117
:103310000A9B05EB03082AE0B8F14A0F06BF4346B3
:10332000013544230A220BA928460593FFF73EFEE8
:10333000DDF82C80ADF826004545059B14D14D23C2
:10334000B9F1000F07D123720323E3600223236145
:10335000C4F814900BE084F824300B23A3620123FB
:10336000E3620023236302E080B23B7278610223B0
:10337000ADF81C300023ADF81E30ADF820300A93B4
:1033800098F800302F2B0BD10396CDF808A00196AA
:10339000CDF800B0334607AA1F494046FDF7DAFBD7
:1033A000BDF81E20BDF820303C2101FB0233BDF8E2
:1033B0001C204FF4616101FB0233BB610A9D09F1DE
:1033C0000109B9F1020F454407F11C077FF474AFFE
:1033D0006068FFF7F5FD226A074B1A60E36B9B1AE2
:1033E000074A18BF012313600DB0BDE8F08F00BF7E
:1033F000303B0A084008002048080020333B0A08F8
:10340000440800204401002033080020373B0A080C
:103410005A3B0A08463B0A08593B0A08280800207C
:103420002DE9F84F07468B46904600F0D7F8194B28
:103430001D689A463DB15C46234613F8012B42B104
:103440003D2A1C46F8D1384600F0C9F80020BDE8F6
:10345000F88FCBEB0404A94659F8040B0028F2D0EE
:1034600022465946FFF76BFC88B959F8043C1E19EF
:103470001B5D3D2B0BD1DAF800303846ED1AAD104C
:10348000C8F8005000F0ABF8701CBDE8F88F4D464E
:10349000E1E700BF8C01002007B501AAFFF7C0FFDC
:1034A00003B05DF804FB0000004870474C010020A9
:1034B0000268464BF0B592FBF3F403FB1422002A9A
:1034C000BCBF02F5A83202F5C0724FF4616092FBF6
:1034D000F0F300FB13224FF03C008B6092FBF0F303
:1034E00000FB132204F52F24ACBF04F66C2404F671
:1034F0006B244B600A600723E21C92FBF3F3344D0C
:10350000C3EBC30394FBF5F5D31A48F6AC6240F263
:10351000B4578B612F4B304803FB0544B4FBF2F2E8
:10352000B4FBF7F3B4FBF0F02244D21A48F69466E9
:10353000131A40F26D12B3FBF6F6B3FBF2F0B3FBD5
:10354000F7F33444E31A02FB103303EB83029924AC
:103550000232B2FBF4F25443A61C0524B6FBF4F489
:103560000A2A34BF02266FF0090616444FF4C872C7
:1035700002FB05055F1C012E98BF0135B3F5997F4D
:10358000A7EB040702D3A3F5997214E0820705D1D3
:103590006424B0FBF4F204FB12024AB94FF4C8727F
:1035A000B0FBF2F402FB1400B0FA80F2520900E022
:1035B00001223B331A44A5F26C750023CA614D61A8
:1035C0000E61CF600B620846F0BD00BF8051010064
:1035D000B13A02004FC5FDFFB03A02007047704794
:1035E00021000A0861000A088D000A0891000A08F3
:1035F000000000005374617274757020537563632A
:1036000065737366756C0000000000000000000028
:1036100000000000000000000000000000000000AA
:10362000000000000000000000000000000000009A
:10363000000000004661696C656420746F20636F50
:103640006E6E6563740053746172747570007B22D2
:1036500063757272656E74223A25342E31667D0070
:1036600063757272656E742D776562686F6F6B003B
:103670004E6F204461746100556269646F747320F9
:10368000486F6F6B00526573706F6E736520526583
:10369000636569766564005374617465005365748D
:1036A00020566572626F7365204D6F64650030004F
:1036B000436C656172656420566572626F73652044
:1036C0004D6F64650046726F6D20257320746F2006
:1036D0002573005374617465205472616E7369744C
:1036E000696F6E004572726F722074616B696E67EC
:1036F000204D6561737572656D656E7473007370CE
:1037000061726B2F6465766963652F736573736986
:103710006F6E2F656E64004572726F722053746114
:103720007465202D20526573657400312E3037008A
:103730000000000000000000D30B0A08D90B0A08A3
:103740002F0C0A08E70B0A08D50B0A080000000036
:103750000000000099110A08E3110A08BB110A08C9
:103760009B110A08C3110A08CB110A08D3110A08D1
:10377000DB110A0800000000000000002D120A08FA
:103780001D120A081F120A086261756400536572EF
:1037900069616C0055534253657269616C31007404
:1037A00079706500706172616D00636D64006964B9
:1037B00000686E64007374726D0066696C74006CEE
:1037C000766C0061646448616E646C657200726559
:1037D0006D6F766548616E646C657200656E756DBF
:1037E00048616E646C657273004A534F4E53747235
:1037F00065616D4C6F6748616E646C6572006170E5
:103800007000253031307520005D20002564002CCB
:10381000200028293A2000205B00636F6465203D6A
:10382000200025690064657461696C73203D200087
:103830000D0A0066006C6E00666E00636F646500C2
:1038400064657461696C006E6F6E650074726163AB
:103850006500696E666F007761726E006572726FE7
:10386000720070616E696300616C6C0000000000A2
:1038700000000000F5120A08FF120A0809130A08DE
:1038800013130A081D130A0829130A0835130A0816
:1038900041130A0849130A0853130A085D130A085A
:1038A000252B3033643A253032750025592D256D8E
:1038B0002D25645425483A254D3A2553257A006133
:1038C000736374696D650000000000000000000073
:1038D00059160A08A9160A08B7160A08C1130A08D1
:1038E0006D160A088F160A087B160A08A3160A081E
:1038F0005B160A085F160A080000000000000000BE
:1039000061170A08B1170A08BF170A08C1130A0885
:103910009D170A0863170A0879170A08AB170A08DF
:103920008F170A085D170A08000000000000000059
:103930009B190A0891190A0887190A08F9180A0830
:103940007B190A086F190A0863190A085B190A0823
:1039500051190A0847190A0803190A08000000004B
:1039600073717274000000000020202020202020AD
:10397000202028282828282020202020202020201F
:10398000202020202020202020881010101010102F
:10399000101010101010101010040404040404047B
:1039A0000404041010101010101041414141414115
:1039B00001010101010101010101010101010101F7
:1039C0000101010110101010101042424242424207
:1039D00002020202020202020202020202020202C7
:1039E000020202021010101020000000000000006F
:1039F00000000000000000000000000000000000C7
:103A000000000000000000000000000000000000B6
:103A100000000000000000000000000000000000A6
:103A20000000000000000000000000000000000096
:103A30000000000000000000000000000000000086
:103A40000000000000000000000000000000000076
:103A50000000000000000000000000000000000066
:103A60000000000000000000000000000000000056
:103A70000000000000000000000000000000000046
:103A80000000000000000000000000000000000036
:103A90000000000000000000000000000000000026
:103AA0000000000000000000000000000000000016
:103AB0000000000000000000000000000000000006
:103AC00000000000000000000000000043000000B3
:103AD0001F0000001C0000001F0000001E0000006E
:103AE0001F0000001E0000001F0000001F0000005B
:103AF0001E0000001F0000001E0000001F0000004C
:103B00001F0000001D0000001F0000001E0000003C
:103B10001F0000001E0000001F0000001F0000002A
:103B20001E0000001F0000001E0000001F0000001B
:103B3000545A00474D54002531305B5E302D392CEE
:103B40002B2D5D256E004D256875256E2E2568751B
:103B5000256E2E256875256E002F256875256E3A11
:103B6000256875256E3A256875256E00F5050A08E5
:103B700025070A08E5120A08AD130A0889140A087D
:103B800019150A0845160A08A5190A082D1C0A085D
:103B9000A51C0A08691D0A08ED1D0A08711E0A08FD
:043BA0000000000021
:103BA40001496E697469616C697A650000000000FE
:103BB40000000000000000000000004572726F72F7
:103BC40000000000000000000000000000000000F1
:103BD400000000000049646C650000000000000063
:103BE4000000000000000000000000000000004D84
:103BF4006561737572696E67000000000000000063
:103C04000000000000000000005265706F727469CB
:103C14006E670000000000000000000000000000CB
:103C2400000000526573706F6E736520576169748C
:103C34000000000000000000000000000000000080
:103C44000000000000000000000000000000000070
:103C54000000000000000000000000000000000060
:103C64000000000000000000000000000000000050
:103C740000010000BF380A080100000068390A0882
:103C8400000000006C3A0A088C3A0A08AC3A0A08A8
:103C94000000000000000000000000000000000020
:103CA400CC3A0A08000000000000000000000000F8
:103CB4000000000000000000000000000000000000
:103CC40000000000000000000000000000000000F0
:103CD40000000000000000000000000000000000E0
:103CE400E0000020333B0A08333B0A0801000000CF
:103CF400000000004A000000000000000000000076
:103D040000000000000000000000000000000000AF
:103D14004A00000000000000000000000000000055
:103D24000000000000000000000000004C0800201B
:103D3400FFFFFFFF00000102030405060708090A4C
:103D44000B0C0D0E0F101112131415161718191A47
:083D54001B1C1D1E1F2028008E
:043D5C00785634124F
:04000005080A0020C5
:00000001FF
